{
  "_format": "hh-sol-artifact-1",
  "contractName": "LuxeRacingTricolore",
  "sourceName": "contracts/Tricolore.sol",
  "abi": [
    {
      "inputs": [],
      "stateMutability": "nonpayable",
      "type": "constructor"
    },
    {
      "anonymous": false,
      "inputs": [
        {
          "indexed": true,
          "internalType": "address",
          "name": "owner",
          "type": "address"
        },
        {
          "indexed": true,
          "internalType": "address",
          "name": "approved",
          "type": "address"
        },
        {
          "indexed": true,
          "internalType": "uint256",
          "name": "tokenId",
          "type": "uint256"
        }
      ],
      "name": "Approval",
      "type": "event"
    },
    {
      "anonymous": false,
      "inputs": [
        {
          "indexed": true,
          "internalType": "address",
          "name": "owner",
          "type": "address"
        },
        {
          "indexed": true,
          "internalType": "address",
          "name": "operator",
          "type": "address"
        },
        {
          "indexed": false,
          "internalType": "bool",
          "name": "approved",
          "type": "bool"
        }
      ],
      "name": "ApprovalForAll",
      "type": "event"
    },
    {
      "anonymous": false,
      "inputs": [
        {
          "indexed": false,
          "internalType": "address",
          "name": "_seller",
          "type": "address"
        },
        {
          "indexed": false,
          "internalType": "address",
          "name": "_buyer",
          "type": "address"
        },
        {
          "indexed": false,
          "internalType": "uint256",
          "name": "_price",
          "type": "uint256"
        }
      ],
      "name": "NftBought",
      "type": "event"
    },
    {
      "anonymous": false,
      "inputs": [
        {
          "indexed": true,
          "internalType": "address",
          "name": "previousOwner",
          "type": "address"
        },
        {
          "indexed": true,
          "internalType": "address",
          "name": "newOwner",
          "type": "address"
        }
      ],
      "name": "OwnershipTransferred",
      "type": "event"
    },
    {
      "anonymous": false,
      "inputs": [
        {
          "indexed": true,
          "internalType": "address",
          "name": "from",
          "type": "address"
        },
        {
          "indexed": true,
          "internalType": "address",
          "name": "to",
          "type": "address"
        },
        {
          "indexed": true,
          "internalType": "uint256",
          "name": "tokenId",
          "type": "uint256"
        }
      ],
      "name": "Transfer",
      "type": "event"
    },
    {
      "inputs": [
        {
          "internalType": "uint256",
          "name": "_tokenId",
          "type": "uint256"
        },
        {
          "internalType": "uint256",
          "name": "_price",
          "type": "uint256"
        }
      ],
      "name": "allowBuy",
      "outputs": [],
      "stateMutability": "nonpayable",
      "type": "function"
    },
    {
      "inputs": [
        {
          "internalType": "address",
          "name": "to",
          "type": "address"
        },
        {
          "internalType": "uint256",
          "name": "tokenId",
          "type": "uint256"
        }
      ],
      "name": "approve",
      "outputs": [],
      "stateMutability": "nonpayable",
      "type": "function"
    },
    {
      "inputs": [
        {
          "internalType": "address",
          "name": "owner",
          "type": "address"
        }
      ],
      "name": "balanceOf",
      "outputs": [
        {
          "internalType": "uint256",
          "name": "",
          "type": "uint256"
        }
      ],
      "stateMutability": "view",
      "type": "function"
    },
    {
      "inputs": [
        {
          "internalType": "uint256",
          "name": "_tokenId",
          "type": "uint256"
        }
      ],
      "name": "buy",
      "outputs": [],
      "stateMutability": "payable",
      "type": "function"
    },
    {
      "inputs": [
        {
          "internalType": "uint256",
          "name": "_tokenId",
          "type": "uint256"
        }
      ],
      "name": "buyWithRoyalty",
      "outputs": [],
      "stateMutability": "payable",
      "type": "function"
    },
    {
      "inputs": [],
      "name": "count",
      "outputs": [
        {
          "internalType": "uint256",
          "name": "",
          "type": "uint256"
        }
      ],
      "stateMutability": "view",
      "type": "function"
    },
    {
      "inputs": [
        {
          "internalType": "uint256",
          "name": "_tokenId",
          "type": "uint256"
        }
      ],
      "name": "disallowBuy",
      "outputs": [],
      "stateMutability": "nonpayable",
      "type": "function"
    },
    {
      "inputs": [
        {
          "internalType": "uint256",
          "name": "tokenId",
          "type": "uint256"
        }
      ],
      "name": "getApproved",
      "outputs": [
        {
          "internalType": "address",
          "name": "",
          "type": "address"
        }
      ],
      "stateMutability": "view",
      "type": "function"
    },
    {
      "inputs": [],
      "name": "isAllowListActive",
      "outputs": [
        {
          "internalType": "bool",
          "name": "",
          "type": "bool"
        }
      ],
      "stateMutability": "view",
      "type": "function"
    },
    {
      "inputs": [
        {
          "internalType": "address",
          "name": "owner",
          "type": "address"
        },
        {
          "internalType": "address",
          "name": "operator",
          "type": "address"
        }
      ],
      "name": "isApprovedForAll",
      "outputs": [
        {
          "internalType": "bool",
          "name": "",
          "type": "bool"
        }
      ],
      "stateMutability": "view",
      "type": "function"
    },
    {
      "inputs": [
        {
          "internalType": "string",
          "name": "uri",
          "type": "string"
        }
      ],
      "name": "isContentOwned",
      "outputs": [
        {
          "internalType": "bool",
          "name": "",
          "type": "bool"
        }
      ],
      "stateMutability": "view",
      "type": "function"
    },
    {
      "inputs": [],
      "name": "luxeMint",
      "outputs": [
        {
          "internalType": "uint256[]",
          "name": "",
          "type": "uint256[]"
        }
      ],
      "stateMutability": "payable",
      "type": "function"
    },
    {
      "inputs": [],
      "name": "name",
      "outputs": [
        {
          "internalType": "string",
          "name": "",
          "type": "string"
        }
      ],
      "stateMutability": "view",
      "type": "function"
    },
    {
      "inputs": [],
      "name": "nftOwner",
      "outputs": [
        {
          "internalType": "address payable",
          "name": "",
          "type": "address"
        }
      ],
      "stateMutability": "view",
      "type": "function"
    },
    {
      "inputs": [],
      "name": "owner",
      "outputs": [
        {
          "internalType": "address",
          "name": "",
          "type": "address"
        }
      ],
      "stateMutability": "view",
      "type": "function"
    },
    {
      "inputs": [
        {
          "internalType": "uint256",
          "name": "tokenId",
          "type": "uint256"
        }
      ],
      "name": "ownerOf",
      "outputs": [
        {
          "internalType": "address",
          "name": "",
          "type": "address"
        }
      ],
      "stateMutability": "view",
      "type": "function"
    },
    {
      "inputs": [
        {
          "internalType": "address",
          "name": "recipient",
          "type": "address"
        },
        {
          "internalType": "uint8[]",
          "name": "metadataURIs",
          "type": "uint8[]"
        }
      ],
      "name": "payToMint",
      "outputs": [
        {
          "internalType": "uint256[]",
          "name": "",
          "type": "uint256[]"
        }
      ],
      "stateMutability": "payable",
      "type": "function"
    },
    {
      "inputs": [],
      "name": "payoutToSeller",
      "outputs": [],
      "stateMutability": "payable",
      "type": "function"
    },
    {
      "inputs": [],
      "name": "renounceOwnership",
      "outputs": [],
      "stateMutability": "nonpayable",
      "type": "function"
    },
    {
      "inputs": [
        {
          "internalType": "address",
          "name": "to",
          "type": "address"
        },
        {
          "internalType": "string",
          "name": "uri",
          "type": "string"
        }
      ],
      "name": "safeMint",
      "outputs": [],
      "stateMutability": "nonpayable",
      "type": "function"
    },
    {
      "inputs": [
        {
          "internalType": "address",
          "name": "from",
          "type": "address"
        },
        {
          "internalType": "address",
          "name": "to",
          "type": "address"
        },
        {
          "internalType": "uint256",
          "name": "tokenId",
          "type": "uint256"
        }
      ],
      "name": "safeTransferFrom",
      "outputs": [],
      "stateMutability": "nonpayable",
      "type": "function"
    },
    {
      "inputs": [
        {
          "internalType": "address",
          "name": "from",
          "type": "address"
        },
        {
          "internalType": "address",
          "name": "to",
          "type": "address"
        },
        {
          "internalType": "uint256",
          "name": "tokenId",
          "type": "uint256"
        },
        {
          "internalType": "bytes",
          "name": "_data",
          "type": "bytes"
        }
      ],
      "name": "safeTransferFrom",
      "outputs": [],
      "stateMutability": "nonpayable",
      "type": "function"
    },
    {
      "inputs": [],
      "name": "sender",
      "outputs": [
        {
          "internalType": "address",
          "name": "",
          "type": "address"
        }
      ],
      "stateMutability": "view",
      "type": "function"
    },
    {
      "inputs": [
        {
          "internalType": "address[]",
          "name": "addresses",
          "type": "address[]"
        }
      ],
      "name": "setAllowList",
      "outputs": [],
      "stateMutability": "nonpayable",
      "type": "function"
    },
    {
      "inputs": [
        {
          "internalType": "address",
          "name": "operator",
          "type": "address"
        },
        {
          "internalType": "bool",
          "name": "approved",
          "type": "bool"
        }
      ],
      "name": "setApprovalForAll",
      "outputs": [],
      "stateMutability": "nonpayable",
      "type": "function"
    },
    {
      "inputs": [
        {
          "internalType": "bool",
          "name": "_isAllowListActive",
          "type": "bool"
        }
      ],
      "name": "setIsAllowListActive",
      "outputs": [],
      "stateMutability": "nonpayable",
      "type": "function"
    },
    {
      "inputs": [
        {
          "internalType": "bytes4",
          "name": "interfaceId",
          "type": "bytes4"
        }
      ],
      "name": "supportsInterface",
      "outputs": [
        {
          "internalType": "bool",
          "name": "",
          "type": "bool"
        }
      ],
      "stateMutability": "view",
      "type": "function"
    },
    {
      "inputs": [],
      "name": "symbol",
      "outputs": [
        {
          "internalType": "string",
          "name": "",
          "type": "string"
        }
      ],
      "stateMutability": "view",
      "type": "function"
    },
    {
      "inputs": [
        {
          "internalType": "uint256",
          "name": "",
          "type": "uint256"
        }
      ],
      "name": "tokenIdToPrice",
      "outputs": [
        {
          "internalType": "uint256",
          "name": "",
          "type": "uint256"
        }
      ],
      "stateMutability": "view",
      "type": "function"
    },
    {
      "inputs": [
        {
          "internalType": "uint256",
          "name": "tokenId",
          "type": "uint256"
        }
      ],
      "name": "tokenURI",
      "outputs": [
        {
          "internalType": "string",
          "name": "",
          "type": "string"
        }
      ],
      "stateMutability": "view",
      "type": "function"
    },
    {
      "inputs": [],
      "name": "totalSupply",
      "outputs": [
        {
          "internalType": "uint256",
          "name": "",
          "type": "uint256"
        }
      ],
      "stateMutability": "view",
      "type": "function"
    },
    {
      "inputs": [
        {
          "internalType": "address",
          "name": "from",
          "type": "address"
        },
        {
          "internalType": "address",
          "name": "to",
          "type": "address"
        },
        {
          "internalType": "uint256",
          "name": "tokenId",
          "type": "uint256"
        }
      ],
      "name": "transferFrom",
      "outputs": [],
      "stateMutability": "nonpayable",
      "type": "function"
    },
    {
      "inputs": [
        {
          "internalType": "address",
          "name": "newOwner",
          "type": "address"
        }
      ],
      "name": "transferOwnership",
      "outputs": [],
      "stateMutability": "nonpayable",
      "type": "function"
    }
  ],
  "bytecode": "0x60806040526101f4600a5573af8a43d8a80deb18b29ffa370ed84cf0bf387ae6600d60006101000a81548173ffffffffffffffffffffffffffffffffffffffff021916908373ffffffffffffffffffffffffffffffffffffffff160217905550734aead0847a9018eade64051073593c4b4e0b8142600e60006101000a81548173ffffffffffffffffffffffffffffffffffffffff021916908373ffffffffffffffffffffffffffffffffffffffff16021790555073a957a7f4d684966909680119a0cb06a593dc0645600f60006101000a81548173ffffffffffffffffffffffffffffffffffffffff021916908373ffffffffffffffffffffffffffffffffffffffff160217905550731aef2e32563b98480173014509352532d9a507a9601060006101000a81548173ffffffffffffffffffffffffffffffffffffffff021916908373ffffffffffffffffffffffffffffffffffffffff1602179055506000601260006101000a81548160ff0219169083151502179055503480156200018657600080fd5b506040518060400160405280601781526020017f4c757865526163696e674e465420547269636f6c6f72650000000000000000008152506040518060400160405280600d81526020017f4c555845545249434f4c4f52450000000000000000000000000000000000000081525081600090805190602001906200020b9291906200035c565b508060019080519060200190620002249291906200035c565b505050620002476200023b6200028e60201b60201c565b6200029660201b60201c565b33600b60006101000a81548173ffffffffffffffffffffffffffffffffffffffff021916908373ffffffffffffffffffffffffffffffffffffffff16021790555062000471565b600033905090565b6000600760009054906101000a900473ffffffffffffffffffffffffffffffffffffffff16905081600760006101000a81548173ffffffffffffffffffffffffffffffffffffffff021916908373ffffffffffffffffffffffffffffffffffffffff1602179055508173ffffffffffffffffffffffffffffffffffffffff168173ffffffffffffffffffffffffffffffffffffffff167f8be0079c531659141344cd1fd0a4f28419497f9722a3daafe3b4186f6b6457e060405160405180910390a35050565b8280546200036a906200043b565b90600052602060002090601f0160209004810192826200038e5760008555620003da565b82601f10620003a957805160ff1916838001178555620003da565b82800160010185558215620003da579182015b82811115620003d9578251825591602001919060010190620003bc565b5b509050620003e99190620003ed565b5090565b5b8082111562000408576000816000905550600101620003ee565b5090565b7f4e487b7100000000000000000000000000000000000000000000000000000000600052602260045260246000fd5b600060028204905060018216806200045457607f821691505b602082108114156200046b576200046a6200040c565b5b50919050565b6149c680620004816000396000f3fe6080604052600436106101ee5760003560e01c806370a082311161010d578063b88d4fde116100a0578063d49913121161006f578063d4991312146106b5578063d96a094a146106de578063e985e9c5146106fa578063f2fde38b14610737578063f4812eb914610760576101ee565b8063b88d4fde146105fd578063bbb5e8d314610626578063c87b56dd1461064f578063d204c45e1461068c576101ee565b806395d89b41116100dc57806395d89b411461054e57806398cd06f0146105795780639f1cabc614610597578063a22cb465146105d4576101ee565b806370a08231146104a6578063715018a6146104e3578063718bc4af146104fa5780638da5cb5b14610523576101ee565b806329fc6bae116101855780636352211e116101545780636352211e146103e55780636447c35d1461042257806367e404ce1461044b5780636962625a14610476576101ee565b806329fc6bae1461034a57806342842e0e146103755780634a18503d1461039e5780634c39a749146103ba576101ee565b8063095ea7b3116101c1578063095ea7b3146102c357806318160ddd146102ec57806323b872dd1461031757806329bb3c8914610340576101ee565b806301ffc9a7146101f357806306661abd1461023057806306fdde031461025b578063081812fc14610286575b600080fd5b3480156101ff57600080fd5b5061021a60048036038101906102159190612daf565b61079d565b6040516102279190612df7565b60405180910390f35b34801561023c57600080fd5b5061024561087f565b6040516102529190612e2b565b60405180910390f35b34801561026757600080fd5b5061027061089c565b60405161027d9190612edf565b60405180910390f35b34801561029257600080fd5b506102ad60048036038101906102a89190612f2d565b61092e565b6040516102ba9190612f9b565b60405180910390f35b3480156102cf57600080fd5b506102ea60048036038101906102e59190612fe2565b6109b3565b005b3480156102f857600080fd5b50610301610acb565b60405161030e9190612e2b565b60405180910390f35b34801561032357600080fd5b5061033e60048036038101906103399190613022565b610ad1565b005b610348610b31565b005b34801561035657600080fd5b5061035f610bf3565b60405161036c9190612df7565b60405180910390f35b34801561038157600080fd5b5061039c60048036038101906103979190613022565b610c06565b005b6103b860048036038101906103b39190612f2d565b610c26565b005b3480156103c657600080fd5b506103cf610dda565b6040516103dc9190613096565b60405180910390f35b3480156103f157600080fd5b5061040c60048036038101906104079190612f2d565b610e00565b6040516104199190612f9b565b60405180910390f35b34801561042e57600080fd5b5061044960048036038101906104449190613116565b610eb2565b005b34801561045757600080fd5b50610460610fd3565b60405161046d9190612f9b565b60405180910390f35b610490600480360381019061048b91906132da565b610ff9565b60405161049d91906133f4565b60405180910390f35b3480156104b257600080fd5b506104cd60048036038101906104c89190613416565b61123d565b6040516104da9190612e2b565b60405180910390f35b3480156104ef57600080fd5b506104f86112f5565b005b34801561050657600080fd5b50610521600480360381019061051c919061346f565b61137d565b005b34801561052f57600080fd5b50610538611416565b6040516105459190612f9b565b60405180910390f35b34801561055a57600080fd5b50610563611440565b6040516105709190612edf565b60405180910390f35b6105816114d2565b60405161058e91906133f4565b60405180910390f35b3480156105a357600080fd5b506105be60048036038101906105b99190613551565b611774565b6040516105cb9190612df7565b60405180910390f35b3480156105e057600080fd5b506105fb60048036038101906105f6919061359a565b6117af565b005b34801561060957600080fd5b50610624600480360381019061061f919061367b565b6117c5565b005b34801561063257600080fd5b5061064d600480360381019061064891906136fe565b611827565b005b34801561065b57600080fd5b5061067660048036038101906106719190612f2d565b6118fc565b6040516106839190612edf565b60405180910390f35b34801561069857600080fd5b506106b360048036038101906106ae919061373e565b61190e565b005b3480156106c157600080fd5b506106dc60048036038101906106d79190612f2d565b6119bb565b005b6106f860048036038101906106f39190612f2d565b611a4d565b005b34801561070657600080fd5b50610721600480360381019061071c919061379a565b611b68565b60405161072e9190612df7565b60405180910390f35b34801561074357600080fd5b5061075e60048036038101906107599190613416565b611bfc565b005b34801561076c57600080fd5b5061078760048036038101906107829190612f2d565b611cf4565b6040516107949190612e2b565b60405180910390f35b60007f80ac58cd000000000000000000000000000000000000000000000000000000007bffffffffffffffffffffffffffffffffffffffffffffffffffffffff1916827bffffffffffffffffffffffffffffffffffffffffffffffffffffffff1916148061086857507f5b5e139f000000000000000000000000000000000000000000000000000000007bffffffffffffffffffffffffffffffffffffffffffffffffffffffff1916827bffffffffffffffffffffffffffffffffffffffffffffffffffffffff1916145b80610878575061087782611d0c565b5b9050919050565b6000600161088d6008611d76565b6108979190613809565b905090565b6060600080546108ab9061388e565b80601f01602080910402602001604051908101604052809291908181526020018280546108d79061388e565b80156109245780601f106108f957610100808354040283529160200191610924565b820191906000526020600020905b81548152906001019060200180831161090757829003601f168201915b5050505050905090565b600061093982611d84565b610978576040517f08c379a000000000000000000000000000000000000000000000000000000000815260040161096f90613932565b60405180910390fd5b6004600083815260200190815260200160002060009054906101000a900473ffffffffffffffffffffffffffffffffffffffff169050919050565b60006109be82610e00565b90508073ffffffffffffffffffffffffffffffffffffffff168373ffffffffffffffffffffffffffffffffffffffff161415610a2f576040517f08c379a0000000000000000000000000000000000000000000000000000000008152600401610a26906139c4565b60405180910390fd5b8073ffffffffffffffffffffffffffffffffffffffff16610a4e611df0565b73ffffffffffffffffffffffffffffffffffffffff161480610a7d5750610a7c81610a77611df0565b611b68565b5b610abc576040517f08c379a0000000000000000000000000000000000000000000000000000000008152600401610ab390613a56565b60405180910390fd5b610ac68383611df8565b505050565b600a5481565b610ae2610adc611df0565b82611eb1565b610b21576040517f08c379a0000000000000000000000000000000000000000000000000000000008152600401610b1890613ae8565b60405180910390fd5b610b2c838383611f8f565b505050565b600b60009054906101000a900473ffffffffffffffffffffffffffffffffffffffff1673ffffffffffffffffffffffffffffffffffffffff163373ffffffffffffffffffffffffffffffffffffffff161415610bf157600c60009054906101000a900473ffffffffffffffffffffffffffffffffffffffff1673ffffffffffffffffffffffffffffffffffffffff166108fc479081150290604051600060405180830381858888f19350505050158015610bef573d6000803e3d6000fd5b505b565b601260009054906101000a900460ff1681565b610c21838383604051806020016040528060008152506117c5565b505050565b60006013600083815260200190815260200160002054905060008111610c81576040517f08c379a0000000000000000000000000000000000000000000000000000000008152600401610c7890613b54565b60405180910390fd5b80341015610cc4576040517f08c379a0000000000000000000000000000000000000000000000000000000008152600401610cbb90613bc0565b60405180910390fd5b6000610ccf83610e00565b9050610cdc813385611f8f565b600060136000858152602001908152602001600020819055508073ffffffffffffffffffffffffffffffffffffffff166108fc6064606134610d1e9190613be0565b610d289190613c69565b9081150290604051600060405180830381858888f19350505050158015610d53573d6000803e3d6000fd5b50601060009054906101000a900473ffffffffffffffffffffffffffffffffffffffff1673ffffffffffffffffffffffffffffffffffffffff166108fc6064600334610d9f9190613be0565b610da99190613c69565b9081150290604051600060405180830381858888f19350505050158015610dd4573d6000803e3d6000fd5b50505050565b600c60009054906101000a900473ffffffffffffffffffffffffffffffffffffffff1681565b6000806002600084815260200190815260200160002060009054906101000a900473ffffffffffffffffffffffffffffffffffffffff169050600073ffffffffffffffffffffffffffffffffffffffff168173ffffffffffffffffffffffffffffffffffffffff161415610ea9576040517f08c379a0000000000000000000000000000000000000000000000000000000008152600401610ea090613d0c565b60405180910390fd5b80915050919050565b610eba611df0565b73ffffffffffffffffffffffffffffffffffffffff16610ed8611416565b73ffffffffffffffffffffffffffffffffffffffff1614610f2e576040517f08c379a0000000000000000000000000000000000000000000000000000000008152600401610f2590613d78565b60405180910390fd5b60005b82829050811015610fce57600160116000858585818110610f5557610f54613d98565b5b9050602002016020810190610f6a9190613416565b73ffffffffffffffffffffffffffffffffffffffff1673ffffffffffffffffffffffffffffffffffffffff16815260200190815260200160002060006101000a81548160ff0219169083151502179055508080610fc690613dc7565b915050610f31565b505050565b600b60009054906101000a900473ffffffffffffffffffffffffffffffffffffffff1681565b6060600061100561087f565b905060008351905060008167ffffffffffffffff81111561102957611028613163565b5b6040519080825280602002602001820160405280156110575781602001602082028036833780820191505090505b50905060005b828160ff1610156111ba57600061109e85888460ff168151811061108457611083613d98565b5b602002602001015160ff166110999190613809565b6121f6565b905060016009826040516110b29190613e4c565b908152602001604051809103902060009054906101000a900460ff1660ff161415611112576040517f08c379a000000000000000000000000000000000000000000000000000000000815260040161110990613eaf565b60405180910390fd5b600060016111206008611d76565b61112a9190613809565b90506111366008612357565b611140898261236d565b61114a8183612547565b600160098360405161115c9190613e4c565b908152602001604051809103902060006101000a81548160ff021916908360ff16021790555080848460ff168151811061119957611198613d98565b5b602002602001018181525050505080806111b290613ecf565b91505061105d565b506111c3610b31565b601260009054906101000a900460ff1615611231576000601160003373ffffffffffffffffffffffffffffffffffffffff1673ffffffffffffffffffffffffffffffffffffffff16815260200190815260200160002060006101000a81548160ff0219169083151502179055505b80935050505092915050565b60008073ffffffffffffffffffffffffffffffffffffffff168273ffffffffffffffffffffffffffffffffffffffff1614156112ae576040517f08c379a00000000000000000000000000000000000000000000000000000000081526004016112a590613f6b565b60405180910390fd5b600360008373ffffffffffffffffffffffffffffffffffffffff1673ffffffffffffffffffffffffffffffffffffffff168152602001908152602001600020549050919050565b6112fd611df0565b73ffffffffffffffffffffffffffffffffffffffff1661131b611416565b73ffffffffffffffffffffffffffffffffffffffff1614611371576040517f08c379a000000000000000000000000000000000000000000000000000000000815260040161136890613d78565b60405180910390fd5b61137b60006125bb565b565b611385611df0565b73ffffffffffffffffffffffffffffffffffffffff166113a3611416565b73ffffffffffffffffffffffffffffffffffffffff16146113f9576040517f08c379a00000000000000000000000000000000000000000000000000000000081526004016113f090613d78565b60405180910390fd5b80601260006101000a81548160ff02191690831515021790555050565b6000600760009054906101000a900473ffffffffffffffffffffffffffffffffffffffff16905090565b60606001805461144f9061388e565b80601f016020809104026020016040519081016040528092919081815260200182805461147b9061388e565b80156114c85780601f1061149d576101008083540402835291602001916114c8565b820191906000526020600020905b8154815290600101906020018083116114ab57829003601f168201915b5050505050905090565b6060601260009054906101000a900460ff161561157d5760011515601160003373ffffffffffffffffffffffffffffffffffffffff1673ffffffffffffffffffffffffffffffffffffffff16815260200190815260200160002060009054906101000a900460ff1615151461157c576040517f08c379a000000000000000000000000000000000000000000000000000000000815260040161157390613fd7565b60405180910390fd5b5b6000600d60009054906101000a900473ffffffffffffffffffffffffffffffffffffffff1690508073ffffffffffffffffffffffffffffffffffffffff166323b872dd33600f60009054906101000a900473ffffffffffffffffffffffffffffffffffffffff16691ecf922043f607f000006040518463ffffffff1660e01b815260040161160d9392919061403c565b602060405180830381600087803b15801561162757600080fd5b505af115801561163b573d6000803e3d6000fd5b505050506040513d601f19601f8201168201806040525081019061165f9190614088565b508073ffffffffffffffffffffffffffffffffffffffff166323b872dd33600e60009054906101000a900473ffffffffffffffffffffffffffffffffffffffff1668f3f20b8dfa69d000006040518463ffffffff1660e01b81526004016116c8939291906140f0565b602060405180830381600087803b1580156116e257600080fd5b505af11580156116f6573d6000803e3d6000fd5b505050506040513d601f19601f8201168201806040525081019061171a9190614088565b5061176e33600167ffffffffffffffff81111561173a57611739613163565b5b6040519080825280602002602001820160405280156117685781602001602082028036833780820191505090505b50610ff9565b91505090565b600060016009836040516117889190613e4c565b908152602001604051809103902060009054906101000a900460ff1660ff16149050919050565b6117c16117ba611df0565b8383612681565b5050565b6117d66117d0611df0565b83611eb1565b611815576040517f08c379a000000000000000000000000000000000000000000000000000000000815260040161180c90613ae8565b60405180910390fd5b611821848484846127ee565b50505050565b61183082610e00565b73ffffffffffffffffffffffffffffffffffffffff163373ffffffffffffffffffffffffffffffffffffffff161461189d576040517f08c379a000000000000000000000000000000000000000000000000000000000815260040161189490614173565b60405180910390fd5b600081116118e0576040517f08c379a00000000000000000000000000000000000000000000000000000000081526004016118d7906141df565b60405180910390fd5b8060136000848152602001908152602001600020819055505050565b60606119078261284a565b9050919050565b611916611df0565b73ffffffffffffffffffffffffffffffffffffffff16611934611416565b73ffffffffffffffffffffffffffffffffffffffff161461198a576040517f08c379a000000000000000000000000000000000000000000000000000000000815260040161198190613d78565b60405180910390fd5b60006119966008611d76565b90506119a26008612357565b6119ac838261299c565b6119b68183612547565b505050565b6119c481610e00565b73ffffffffffffffffffffffffffffffffffffffff163373ffffffffffffffffffffffffffffffffffffffff1614611a31576040517f08c379a0000000000000000000000000000000000000000000000000000000008152600401611a2890614173565b60405180910390fd5b6000601360008381526020019081526020016000208190555050565b60006013600083815260200190815260200160002054905060008111611aa8576040517f08c379a0000000000000000000000000000000000000000000000000000000008152600401611a9f90613b54565b60405180910390fd5b80341015611aeb576040517f08c379a0000000000000000000000000000000000000000000000000000000008152600401611ae290613bc0565b60405180910390fd5b6000611af683610e00565b9050611b03813385611f8f565b600060136000858152602001908152602001600020819055508073ffffffffffffffffffffffffffffffffffffffff166108fc349081150290604051600060405180830381858888f19350505050158015611b62573d6000803e3d6000fd5b50505050565b6000600560008473ffffffffffffffffffffffffffffffffffffffff1673ffffffffffffffffffffffffffffffffffffffff16815260200190815260200160002060008373ffffffffffffffffffffffffffffffffffffffff1673ffffffffffffffffffffffffffffffffffffffff16815260200190815260200160002060009054906101000a900460ff16905092915050565b611c04611df0565b73ffffffffffffffffffffffffffffffffffffffff16611c22611416565b73ffffffffffffffffffffffffffffffffffffffff1614611c78576040517f08c379a0000000000000000000000000000000000000000000000000000000008152600401611c6f90613d78565b60405180910390fd5b600073ffffffffffffffffffffffffffffffffffffffff168173ffffffffffffffffffffffffffffffffffffffff161415611ce8576040517f08c379a0000000000000000000000000000000000000000000000000000000008152600401611cdf90614271565b60405180910390fd5b611cf1816125bb565b50565b60136020528060005260406000206000915090505481565b60007f01ffc9a7000000000000000000000000000000000000000000000000000000007bffffffffffffffffffffffffffffffffffffffffffffffffffffffff1916827bffffffffffffffffffffffffffffffffffffffffffffffffffffffff1916149050919050565b600081600001549050919050565b60008073ffffffffffffffffffffffffffffffffffffffff166002600084815260200190815260200160002060009054906101000a900473ffffffffffffffffffffffffffffffffffffffff1673ffffffffffffffffffffffffffffffffffffffff1614159050919050565b600033905090565b816004600083815260200190815260200160002060006101000a81548173ffffffffffffffffffffffffffffffffffffffff021916908373ffffffffffffffffffffffffffffffffffffffff160217905550808273ffffffffffffffffffffffffffffffffffffffff16611e6b83610e00565b73ffffffffffffffffffffffffffffffffffffffff167f8c5be1e5ebec7d5bd14f71427d1e84f3dd0314c0f7b2291e5b200ac8c7c3b92560405160405180910390a45050565b6000611ebc82611d84565b611efb576040517f08c379a0000000000000000000000000000000000000000000000000000000008152600401611ef290614303565b60405180910390fd5b6000611f0683610e00565b90508073ffffffffffffffffffffffffffffffffffffffff168473ffffffffffffffffffffffffffffffffffffffff161480611f7557508373ffffffffffffffffffffffffffffffffffffffff16611f5d8461092e565b73ffffffffffffffffffffffffffffffffffffffff16145b80611f865750611f858185611b68565b5b91505092915050565b8273ffffffffffffffffffffffffffffffffffffffff16611faf82610e00565b73ffffffffffffffffffffffffffffffffffffffff1614612005576040517f08c379a0000000000000000000000000000000000000000000000000000000008152600401611ffc90614395565b60405180910390fd5b600073ffffffffffffffffffffffffffffffffffffffff168273ffffffffffffffffffffffffffffffffffffffff161415612075576040517f08c379a000000000000000000000000000000000000000000000000000000000815260040161206c90614427565b60405180910390fd5b6120808383836129ba565b61208b600082611df8565b6001600360008573ffffffffffffffffffffffffffffffffffffffff1673ffffffffffffffffffffffffffffffffffffffff16815260200190815260200160002060008282546120db9190614447565b925050819055506001600360008473ffffffffffffffffffffffffffffffffffffffff1673ffffffffffffffffffffffffffffffffffffffff16815260200190815260200160002060008282546121329190613809565b92505081905550816002600083815260200190815260200160002060006101000a81548173ffffffffffffffffffffffffffffffffffffffff021916908373ffffffffffffffffffffffffffffffffffffffff160217905550808273ffffffffffffffffffffffffffffffffffffffff168473ffffffffffffffffffffffffffffffffffffffff167fddf252ad1be2c89b69c2b068fc378daa952ba7f163c4a11628f55a4df523b3ef60405160405180910390a46121f18383836129bf565b505050565b6060600082141561223e576040518060400160405280600181526020017f30000000000000000000000000000000000000000000000000000000000000008152509050612352565b600082905060005b6000821461227057808061225990613dc7565b915050600a826122699190613c69565b9150612246565b60008167ffffffffffffffff81111561228c5761228b613163565b5b6040519080825280601f01601f1916602001820160405280156122be5781602001600182028036833780820191505090505b5090505b6000851461234b576001826122d79190614447565b9150600a856122e6919061447b565b60306122f29190613809565b60f81b81838151811061230857612307613d98565b5b60200101907effffffffffffffffffffffffffffffffffffffffffffffffffffffffffffff1916908160001a905350600a856123449190613c69565b94506122c2565b8093505050505b919050565b6001816000016000828254019250508190555050565b600073ffffffffffffffffffffffffffffffffffffffff168273ffffffffffffffffffffffffffffffffffffffff1614156123dd576040517f08c379a00000000000000000000000000000000000000000000000000000000081526004016123d4906144f8565b60405180910390fd5b6123e681611d84565b15612426576040517f08c379a000000000000000000000000000000000000000000000000000000000815260040161241d90614564565b60405180910390fd5b612432600083836129ba565b6001600360008473ffffffffffffffffffffffffffffffffffffffff1673ffffffffffffffffffffffffffffffffffffffff16815260200190815260200160002060008282546124829190613809565b92505081905550816002600083815260200190815260200160002060006101000a81548173ffffffffffffffffffffffffffffffffffffffff021916908373ffffffffffffffffffffffffffffffffffffffff160217905550808273ffffffffffffffffffffffffffffffffffffffff16600073ffffffffffffffffffffffffffffffffffffffff167fddf252ad1be2c89b69c2b068fc378daa952ba7f163c4a11628f55a4df523b3ef60405160405180910390a4612543600083836129bf565b5050565b61255082611d84565b61258f576040517f08c379a0000000000000000000000000000000000000000000000000000000008152600401612586906145f6565b60405180910390fd5b806006600084815260200190815260200160002090805190602001906125b6929190612ca0565b505050565b6000600760009054906101000a900473ffffffffffffffffffffffffffffffffffffffff16905081600760006101000a81548173ffffffffffffffffffffffffffffffffffffffff021916908373ffffffffffffffffffffffffffffffffffffffff1602179055508173ffffffffffffffffffffffffffffffffffffffff168173ffffffffffffffffffffffffffffffffffffffff167f8be0079c531659141344cd1fd0a4f28419497f9722a3daafe3b4186f6b6457e060405160405180910390a35050565b8173ffffffffffffffffffffffffffffffffffffffff168373ffffffffffffffffffffffffffffffffffffffff1614156126f0576040517f08c379a00000000000000000000000000000000000000000000000000000000081526004016126e790614662565b60405180910390fd5b80600560008573ffffffffffffffffffffffffffffffffffffffff1673ffffffffffffffffffffffffffffffffffffffff16815260200190815260200160002060008473ffffffffffffffffffffffffffffffffffffffff1673ffffffffffffffffffffffffffffffffffffffff16815260200190815260200160002060006101000a81548160ff0219169083151502179055508173ffffffffffffffffffffffffffffffffffffffff168373ffffffffffffffffffffffffffffffffffffffff167f17307eab39ab6107e8899845ad3d59bd9653f200f220920489ca2b5937696c31836040516127e19190612df7565b60405180910390a3505050565b6127f9848484611f8f565b612805848484846129c4565b612844576040517f08c379a000000000000000000000000000000000000000000000000000000000815260040161283b906146f4565b60405180910390fd5b50505050565b606061285582611d84565b612894576040517f08c379a000000000000000000000000000000000000000000000000000000000815260040161288b90614786565b60405180910390fd5b60006006600084815260200190815260200160002080546128b49061388e565b80601f01602080910402602001604051908101604052809291908181526020018280546128e09061388e565b801561292d5780601f106129025761010080835404028352916020019161292d565b820191906000526020600020905b81548152906001019060200180831161291057829003601f168201915b50505050509050600061293e612b5b565b9050600081511415612954578192505050612997565b6000825111156129895780826040516020016129719291906147a6565b60405160208183030381529060405292505050612997565b61299284612b7b565b925050505b919050565b6129b6828260405180602001604052806000815250612c22565b5050565b505050565b505050565b60006129e58473ffffffffffffffffffffffffffffffffffffffff16612c7d565b15612b4e578373ffffffffffffffffffffffffffffffffffffffff1663150b7a02612a0e611df0565b8786866040518563ffffffff1660e01b8152600401612a30949392919061481f565b602060405180830381600087803b158015612a4a57600080fd5b505af1925050508015612a7b57506040513d601f19601f82011682018060405250810190612a789190614880565b60015b612afe573d8060008114612aab576040519150601f19603f3d011682016040523d82523d6000602084013e612ab0565b606091505b50600081511415612af6576040517f08c379a0000000000000000000000000000000000000000000000000000000008152600401612aed906146f4565b60405180910390fd5b805181602001fd5b63150b7a0260e01b7bffffffffffffffffffffffffffffffffffffffffffffffffffffffff1916817bffffffffffffffffffffffffffffffffffffffffffffffffffffffff191614915050612b53565b600190505b949350505050565b606060405180608001604052806051815260200161494060519139905090565b6060612b8682611d84565b612bc5576040517f08c379a0000000000000000000000000000000000000000000000000000000008152600401612bbc9061491f565b60405180910390fd5b6000612bcf612b5b565b90506000815111612bef5760405180602001604052806000815250612c1a565b80612bf9846121f6565b604051602001612c0a9291906147a6565b6040516020818303038152906040525b915050919050565b612c2c838361236d565b612c3960008484846129c4565b612c78576040517f08c379a0000000000000000000000000000000000000000000000000000000008152600401612c6f906146f4565b60405180910390fd5b505050565b6000808273ffffffffffffffffffffffffffffffffffffffff163b119050919050565b828054612cac9061388e565b90600052602060002090601f016020900481019282612cce5760008555612d15565b82601f10612ce757805160ff1916838001178555612d15565b82800160010185558215612d15579182015b82811115612d14578251825591602001919060010190612cf9565b5b509050612d229190612d26565b5090565b5b80821115612d3f576000816000905550600101612d27565b5090565b6000604051905090565b600080fd5b600080fd5b60007fffffffff0000000000000000000000000000000000000000000000000000000082169050919050565b612d8c81612d57565b8114612d9757600080fd5b50565b600081359050612da981612d83565b92915050565b600060208284031215612dc557612dc4612d4d565b5b6000612dd384828501612d9a565b91505092915050565b60008115159050919050565b612df181612ddc565b82525050565b6000602082019050612e0c6000830184612de8565b92915050565b6000819050919050565b612e2581612e12565b82525050565b6000602082019050612e406000830184612e1c565b92915050565b600081519050919050565b600082825260208201905092915050565b60005b83811015612e80578082015181840152602081019050612e65565b83811115612e8f576000848401525b50505050565b6000601f19601f8301169050919050565b6000612eb182612e46565b612ebb8185612e51565b9350612ecb818560208601612e62565b612ed481612e95565b840191505092915050565b60006020820190508181036000830152612ef98184612ea6565b905092915050565b612f0a81612e12565b8114612f1557600080fd5b50565b600081359050612f2781612f01565b92915050565b600060208284031215612f4357612f42612d4d565b5b6000612f5184828501612f18565b91505092915050565b600073ffffffffffffffffffffffffffffffffffffffff82169050919050565b6000612f8582612f5a565b9050919050565b612f9581612f7a565b82525050565b6000602082019050612fb06000830184612f8c565b92915050565b612fbf81612f7a565b8114612fca57600080fd5b50565b600081359050612fdc81612fb6565b92915050565b60008060408385031215612ff957612ff8612d4d565b5b600061300785828601612fcd565b925050602061301885828601612f18565b9150509250929050565b60008060006060848603121561303b5761303a612d4d565b5b600061304986828701612fcd565b935050602061305a86828701612fcd565b925050604061306b86828701612f18565b9150509250925092565b600061308082612f5a565b9050919050565b61309081613075565b82525050565b60006020820190506130ab6000830184613087565b92915050565b600080fd5b600080fd5b600080fd5b60008083601f8401126130d6576130d56130b1565b5b8235905067ffffffffffffffff8111156130f3576130f26130b6565b5b60208301915083602082028301111561310f5761310e6130bb565b5b9250929050565b6000806020838503121561312d5761312c612d4d565b5b600083013567ffffffffffffffff81111561314b5761314a612d52565b5b613157858286016130c0565b92509250509250929050565b7f4e487b7100000000000000000000000000000000000000000000000000000000600052604160045260246000fd5b61319b82612e95565b810181811067ffffffffffffffff821117156131ba576131b9613163565b5b80604052505050565b60006131cd612d43565b90506131d98282613192565b919050565b600067ffffffffffffffff8211156131f9576131f8613163565b5b602082029050602081019050919050565b600060ff82169050919050565b6132208161320a565b811461322b57600080fd5b50565b60008135905061323d81613217565b92915050565b6000613256613251846131de565b6131c3565b90508083825260208201905060208402830185811115613279576132786130bb565b5b835b818110156132a2578061328e888261322e565b84526020840193505060208101905061327b565b5050509392505050565b600082601f8301126132c1576132c06130b1565b5b81356132d1848260208601613243565b91505092915050565b600080604083850312156132f1576132f0612d4d565b5b60006132ff85828601612fcd565b925050602083013567ffffffffffffffff8111156133205761331f612d52565b5b61332c858286016132ac565b9150509250929050565b600081519050919050565b600082825260208201905092915050565b6000819050602082019050919050565b61336b81612e12565b82525050565b600061337d8383613362565b60208301905092915050565b6000602082019050919050565b60006133a182613336565b6133ab8185613341565b93506133b683613352565b8060005b838110156133e75781516133ce8882613371565b97506133d983613389565b9250506001810190506133ba565b5085935050505092915050565b6000602082019050818103600083015261340e8184613396565b905092915050565b60006020828403121561342c5761342b612d4d565b5b600061343a84828501612fcd565b91505092915050565b61344c81612ddc565b811461345757600080fd5b50565b60008135905061346981613443565b92915050565b60006020828403121561348557613484612d4d565b5b60006134938482850161345a565b91505092915050565b600080fd5b600067ffffffffffffffff8211156134bc576134bb613163565b5b6134c582612e95565b9050602081019050919050565b82818337600083830152505050565b60006134f46134ef846134a1565b6131c3565b9050828152602081018484840111156135105761350f61349c565b5b61351b8482856134d2565b509392505050565b600082601f830112613538576135376130b1565b5b81356135488482602086016134e1565b91505092915050565b60006020828403121561356757613566612d4d565b5b600082013567ffffffffffffffff81111561358557613584612d52565b5b61359184828501613523565b91505092915050565b600080604083850312156135b1576135b0612d4d565b5b60006135bf85828601612fcd565b92505060206135d08582860161345a565b9150509250929050565b600067ffffffffffffffff8211156135f5576135f4613163565b5b6135fe82612e95565b9050602081019050919050565b600061361e613619846135da565b6131c3565b90508281526020810184848401111561363a5761363961349c565b5b6136458482856134d2565b509392505050565b600082601f830112613662576136616130b1565b5b813561367284826020860161360b565b91505092915050565b6000806000806080858703121561369557613694612d4d565b5b60006136a387828801612fcd565b94505060206136b487828801612fcd565b93505060406136c587828801612f18565b925050606085013567ffffffffffffffff8111156136e6576136e5612d52565b5b6136f28782880161364d565b91505092959194509250565b6000806040838503121561371557613714612d4d565b5b600061372385828601612f18565b925050602061373485828601612f18565b9150509250929050565b6000806040838503121561375557613754612d4d565b5b600061376385828601612fcd565b925050602083013567ffffffffffffffff81111561378457613783612d52565b5b61379085828601613523565b9150509250929050565b600080604083850312156137b1576137b0612d4d565b5b60006137bf85828601612fcd565b92505060206137d085828601612fcd565b9150509250929050565b7f4e487b7100000000000000000000000000000000000000000000000000000000600052601160045260246000fd5b600061381482612e12565b915061381f83612e12565b9250827fffffffffffffffffffffffffffffffffffffffffffffffffffffffffffffffff03821115613854576138536137da565b5b828201905092915050565b7f4e487b7100000000000000000000000000000000000000000000000000000000600052602260045260246000fd5b600060028204905060018216806138a657607f821691505b602082108114156138ba576138b961385f565b5b50919050565b7f4552433732313a20617070726f76656420717565727920666f72206e6f6e657860008201527f697374656e7420746f6b656e0000000000000000000000000000000000000000602082015250565b600061391c602c83612e51565b9150613927826138c0565b604082019050919050565b6000602082019050818103600083015261394b8161390f565b9050919050565b7f4552433732313a20617070726f76616c20746f2063757272656e74206f776e6560008201527f7200000000000000000000000000000000000000000000000000000000000000602082015250565b60006139ae602183612e51565b91506139b982613952565b604082019050919050565b600060208201905081810360008301526139dd816139a1565b9050919050565b7f4552433732313a20617070726f76652063616c6c6572206973206e6f74206f7760008201527f6e6572206e6f7220617070726f76656420666f7220616c6c0000000000000000602082015250565b6000613a40603883612e51565b9150613a4b826139e4565b604082019050919050565b60006020820190508181036000830152613a6f81613a33565b9050919050565b7f4552433732313a207472616e736665722063616c6c6572206973206e6f74206f60008201527f776e6572206e6f7220617070726f766564000000000000000000000000000000602082015250565b6000613ad2603183612e51565b9150613add82613a76565b604082019050919050565b60006020820190508181036000830152613b0181613ac5565b9050919050565b7f5468697320746f6b656e206973206e6f7420666f722073616c65000000000000600082015250565b6000613b3e601a83612e51565b9150613b4982613b08565b602082019050919050565b60006020820190508181036000830152613b6d81613b31565b9050919050565b7f496e636f72726563742076616c75650000000000000000000000000000000000600082015250565b6000613baa600f83612e51565b9150613bb582613b74565b602082019050919050565b60006020820190508181036000830152613bd981613b9d565b9050919050565b6000613beb82612e12565b9150613bf683612e12565b9250817fffffffffffffffffffffffffffffffffffffffffffffffffffffffffffffffff0483118215151615613c2f57613c2e6137da565b5b828202905092915050565b7f4e487b7100000000000000000000000000000000000000000000000000000000600052601260045260246000fd5b6000613c7482612e12565b9150613c7f83612e12565b925082613c8f57613c8e613c3a565b5b828204905092915050565b7f4552433732313a206f776e657220717565727920666f72206e6f6e657869737460008201527f656e7420746f6b656e0000000000000000000000000000000000000000000000602082015250565b6000613cf6602983612e51565b9150613d0182613c9a565b604082019050919050565b60006020820190508181036000830152613d2581613ce9565b9050919050565b7f4f776e61626c653a2063616c6c6572206973206e6f7420746865206f776e6572600082015250565b6000613d62602083612e51565b9150613d6d82613d2c565b602082019050919050565b60006020820190508181036000830152613d9181613d55565b9050919050565b7f4e487b7100000000000000000000000000000000000000000000000000000000600052603260045260246000fd5b6000613dd282612e12565b91507fffffffffffffffffffffffffffffffffffffffffffffffffffffffffffffffff821415613e0557613e046137da565b5b600182019050919050565b600081905092915050565b6000613e2682612e46565b613e308185613e10565b9350613e40818560208601612e62565b80840191505092915050565b6000613e588284613e1b565b915081905092915050565b7f4e465420616c7265616479206d696e7465642100000000000000000000000000600082015250565b6000613e99601383612e51565b9150613ea482613e63565b602082019050919050565b60006020820190508181036000830152613ec881613e8c565b9050919050565b6000613eda8261320a565b915060ff821415613eee57613eed6137da565b5b600182019050919050565b7f4552433732313a2062616c616e636520717565727920666f7220746865207a6560008201527f726f206164647265737300000000000000000000000000000000000000000000602082015250565b6000613f55602a83612e51565b9150613f6082613ef9565b604082019050919050565b60006020820190508181036000830152613f8481613f48565b9050919050565b7f4e6f74206f6e20616c6c6f7765646c6973740000000000000000000000000000600082015250565b6000613fc1601283612e51565b9150613fcc82613f8b565b602082019050919050565b60006020820190508181036000830152613ff081613fb4565b9050919050565b6000819050919050565b6000819050919050565b600061402661402161401c84613ff7565b614001565b612e12565b9050919050565b6140368161400b565b82525050565b60006060820190506140516000830186612f8c565b61405e6020830185612f8c565b61406b604083018461402d565b949350505050565b60008151905061408281613443565b92915050565b60006020828403121561409e5761409d612d4d565b5b60006140ac84828501614073565b91505092915050565b6000819050919050565b60006140da6140d56140d0846140b5565b614001565b612e12565b9050919050565b6140ea816140bf565b82525050565b60006060820190506141056000830186612f8c565b6141126020830185612f8c565b61411f60408301846140e1565b949350505050565b7f4e6f74206f776e6572206f66207468697320746f6b656e000000000000000000600082015250565b600061415d601783612e51565b915061416882614127565b602082019050919050565b6000602082019050818103600083015261418c81614150565b9050919050565b7f5072696365207a65726f00000000000000000000000000000000000000000000600082015250565b60006141c9600a83612e51565b91506141d482614193565b602082019050919050565b600060208201905081810360008301526141f8816141bc565b9050919050565b7f4f776e61626c653a206e6577206f776e657220697320746865207a65726f206160008201527f6464726573730000000000000000000000000000000000000000000000000000602082015250565b600061425b602683612e51565b9150614266826141ff565b604082019050919050565b6000602082019050818103600083015261428a8161424e565b9050919050565b7f4552433732313a206f70657261746f7220717565727920666f72206e6f6e657860008201527f697374656e7420746f6b656e0000000000000000000000000000000000000000602082015250565b60006142ed602c83612e51565b91506142f882614291565b604082019050919050565b6000602082019050818103600083015261431c816142e0565b9050919050565b7f4552433732313a207472616e736665722066726f6d20696e636f72726563742060008201527f6f776e6572000000000000000000000000000000000000000000000000000000602082015250565b600061437f602583612e51565b915061438a82614323565b604082019050919050565b600060208201905081810360008301526143ae81614372565b9050919050565b7f4552433732313a207472616e7366657220746f20746865207a65726f2061646460008201527f7265737300000000000000000000000000000000000000000000000000000000602082015250565b6000614411602483612e51565b915061441c826143b5565b604082019050919050565b6000602082019050818103600083015261444081614404565b9050919050565b600061445282612e12565b915061445d83612e12565b9250828210156144705761446f6137da565b5b828203905092915050565b600061448682612e12565b915061449183612e12565b9250826144a1576144a0613c3a565b5b828206905092915050565b7f4552433732313a206d696e7420746f20746865207a65726f2061646472657373600082015250565b60006144e2602083612e51565b91506144ed826144ac565b602082019050919050565b60006020820190508181036000830152614511816144d5565b9050919050565b7f4552433732313a20746f6b656e20616c7265616479206d696e74656400000000600082015250565b600061454e601c83612e51565b915061455982614518565b602082019050919050565b6000602082019050818103600083015261457d81614541565b9050919050565b7f45524337323155524953746f726167653a2055524920736574206f66206e6f6e60008201527f6578697374656e7420746f6b656e000000000000000000000000000000000000602082015250565b60006145e0602e83612e51565b91506145eb82614584565b604082019050919050565b6000602082019050818103600083015261460f816145d3565b9050919050565b7f4552433732313a20617070726f766520746f2063616c6c657200000000000000600082015250565b600061464c601983612e51565b915061465782614616565b602082019050919050565b6000602082019050818103600083015261467b8161463f565b9050919050565b7f4552433732313a207472616e7366657220746f206e6f6e20455243373231526560008201527f63656976657220696d706c656d656e7465720000000000000000000000000000602082015250565b60006146de603283612e51565b91506146e982614682565b604082019050919050565b6000602082019050818103600083015261470d816146d1565b9050919050565b7f45524337323155524953746f726167653a2055524920717565727920666f722060008201527f6e6f6e6578697374656e7420746f6b656e000000000000000000000000000000602082015250565b6000614770603183612e51565b915061477b82614714565b604082019050919050565b6000602082019050818103600083015261479f81614763565b9050919050565b60006147b28285613e1b565b91506147be8284613e1b565b91508190509392505050565b600081519050919050565b600082825260208201905092915050565b60006147f1826147ca565b6147fb81856147d5565b935061480b818560208601612e62565b61481481612e95565b840191505092915050565b60006080820190506148346000830187612f8c565b6148416020830186612f8c565b61484e6040830185612e1c565b818103606083015261486081846147e6565b905095945050505050565b60008151905061487a81612d83565b92915050565b60006020828403121561489657614895612d4d565b5b60006148a48482850161486b565b91505092915050565b7f4552433732314d657461646174613a2055524920717565727920666f72206e6f60008201527f6e6578697374656e7420746f6b656e0000000000000000000000000000000000602082015250565b6000614909602f83612e51565b9150614914826148ad565b604082019050919050565b60006020820190508181036000830152614938816148fc565b905091905056fe68747470733a2f2f676174657761792e70696e6174612e636c6f75642f697066732f516d617a566f47464b706272326a7332334d696f38727851707352327341684c59375341744b32787079533776582fa26469706673582212207b47b841b81cf1b761dd784b0950a718fb130e259c406e3b461bd6dce9cc418764736f6c63430008090033",
  "linkReferences": {},
  "deployedLinkReferences": {}
}