{
  "_format": "hh-sol-artifact-1",
  "contractName": "LuxeRacingPista",
  "sourceName": "contracts/Pista.sol",
  "abi": [
    {
      "inputs": [],
      "stateMutability": "nonpayable",
      "type": "constructor"
    },
    {
      "anonymous": false,
      "inputs": [
        {
          "indexed": true,
          "internalType": "address",
          "name": "owner",
          "type": "address"
        },
        {
          "indexed": true,
          "internalType": "address",
          "name": "approved",
          "type": "address"
        },
        {
          "indexed": true,
          "internalType": "uint256",
          "name": "tokenId",
          "type": "uint256"
        }
      ],
      "name": "Approval",
      "type": "event"
    },
    {
      "anonymous": false,
      "inputs": [
        {
          "indexed": true,
          "internalType": "address",
          "name": "owner",
          "type": "address"
        },
        {
          "indexed": true,
          "internalType": "address",
          "name": "operator",
          "type": "address"
        },
        {
          "indexed": false,
          "internalType": "bool",
          "name": "approved",
          "type": "bool"
        }
      ],
      "name": "ApprovalForAll",
      "type": "event"
    },
    {
      "anonymous": false,
      "inputs": [
        {
          "indexed": false,
          "internalType": "address",
          "name": "_seller",
          "type": "address"
        },
        {
          "indexed": false,
          "internalType": "address",
          "name": "_buyer",
          "type": "address"
        },
        {
          "indexed": false,
          "internalType": "uint256",
          "name": "_price",
          "type": "uint256"
        }
      ],
      "name": "NftBought",
      "type": "event"
    },
    {
      "anonymous": false,
      "inputs": [
        {
          "indexed": true,
          "internalType": "address",
          "name": "previousOwner",
          "type": "address"
        },
        {
          "indexed": true,
          "internalType": "address",
          "name": "newOwner",
          "type": "address"
        }
      ],
      "name": "OwnershipTransferred",
      "type": "event"
    },
    {
      "anonymous": false,
      "inputs": [
        {
          "indexed": true,
          "internalType": "address",
          "name": "from",
          "type": "address"
        },
        {
          "indexed": true,
          "internalType": "address",
          "name": "to",
          "type": "address"
        },
        {
          "indexed": true,
          "internalType": "uint256",
          "name": "tokenId",
          "type": "uint256"
        }
      ],
      "name": "Transfer",
      "type": "event"
    },
    {
      "inputs": [
        {
          "internalType": "address",
          "name": "addr",
          "type": "address"
        }
      ],
      "name": "addToFreeMint",
      "outputs": [],
      "stateMutability": "nonpayable",
      "type": "function"
    },
    {
      "inputs": [
        {
          "internalType": "uint256",
          "name": "_tokenId",
          "type": "uint256"
        },
        {
          "internalType": "uint256",
          "name": "_price",
          "type": "uint256"
        }
      ],
      "name": "allowBuy",
      "outputs": [],
      "stateMutability": "nonpayable",
      "type": "function"
    },
    {
      "inputs": [
        {
          "internalType": "address",
          "name": "to",
          "type": "address"
        },
        {
          "internalType": "uint256",
          "name": "tokenId",
          "type": "uint256"
        }
      ],
      "name": "approve",
      "outputs": [],
      "stateMutability": "nonpayable",
      "type": "function"
    },
    {
      "inputs": [
        {
          "internalType": "address",
          "name": "owner",
          "type": "address"
        }
      ],
      "name": "balanceOf",
      "outputs": [
        {
          "internalType": "uint256",
          "name": "",
          "type": "uint256"
        }
      ],
      "stateMutability": "view",
      "type": "function"
    },
    {
      "inputs": [
        {
          "internalType": "uint256",
          "name": "tokenId",
          "type": "uint256"
        }
      ],
      "name": "burn",
      "outputs": [],
      "stateMutability": "nonpayable",
      "type": "function"
    },
    {
      "inputs": [
        {
          "internalType": "uint256",
          "name": "_tokenId",
          "type": "uint256"
        }
      ],
      "name": "buy",
      "outputs": [],
      "stateMutability": "payable",
      "type": "function"
    },
    {
      "inputs": [
        {
          "internalType": "uint256",
          "name": "_tokenId",
          "type": "uint256"
        }
      ],
      "name": "buyWithRoyalty",
      "outputs": [],
      "stateMutability": "payable",
      "type": "function"
    },
    {
      "inputs": [
        {
          "internalType": "address",
          "name": "newLuxeToken",
          "type": "address"
        }
      ],
      "name": "changeLuxeToken",
      "outputs": [],
      "stateMutability": "nonpayable",
      "type": "function"
    },
    {
      "inputs": [],
      "name": "count",
      "outputs": [
        {
          "internalType": "uint256",
          "name": "",
          "type": "uint256"
        }
      ],
      "stateMutability": "view",
      "type": "function"
    },
    {
      "inputs": [
        {
          "internalType": "uint256",
          "name": "_tokenId",
          "type": "uint256"
        }
      ],
      "name": "disallowBuy",
      "outputs": [],
      "stateMutability": "nonpayable",
      "type": "function"
    },
    {
      "inputs": [
        {
          "internalType": "uint256",
          "name": "tokenId",
          "type": "uint256"
        }
      ],
      "name": "getApproved",
      "outputs": [
        {
          "internalType": "address",
          "name": "",
          "type": "address"
        }
      ],
      "stateMutability": "view",
      "type": "function"
    },
    {
      "inputs": [],
      "name": "isAllowListActive",
      "outputs": [
        {
          "internalType": "bool",
          "name": "",
          "type": "bool"
        }
      ],
      "stateMutability": "view",
      "type": "function"
    },
    {
      "inputs": [
        {
          "internalType": "address",
          "name": "owner",
          "type": "address"
        },
        {
          "internalType": "address",
          "name": "operator",
          "type": "address"
        }
      ],
      "name": "isApprovedForAll",
      "outputs": [
        {
          "internalType": "bool",
          "name": "",
          "type": "bool"
        }
      ],
      "stateMutability": "view",
      "type": "function"
    },
    {
      "inputs": [
        {
          "internalType": "string",
          "name": "uri",
          "type": "string"
        }
      ],
      "name": "isContentOwned",
      "outputs": [
        {
          "internalType": "bool",
          "name": "",
          "type": "bool"
        }
      ],
      "stateMutability": "view",
      "type": "function"
    },
    {
      "inputs": [],
      "name": "luxeMint",
      "outputs": [
        {
          "internalType": "uint256[]",
          "name": "",
          "type": "uint256[]"
        }
      ],
      "stateMutability": "nonpayable",
      "type": "function"
    },
    {
      "inputs": [
        {
          "internalType": "uint256",
          "name": "amount",
          "type": "uint256"
        }
      ],
      "name": "luxeMultiMint",
      "outputs": [
        {
          "internalType": "uint256[]",
          "name": "",
          "type": "uint256[]"
        }
      ],
      "stateMutability": "nonpayable",
      "type": "function"
    },
    {
      "inputs": [],
      "name": "name",
      "outputs": [
        {
          "internalType": "string",
          "name": "",
          "type": "string"
        }
      ],
      "stateMutability": "view",
      "type": "function"
    },
    {
      "inputs": [],
      "name": "nftOwner",
      "outputs": [
        {
          "internalType": "address payable",
          "name": "",
          "type": "address"
        }
      ],
      "stateMutability": "view",
      "type": "function"
    },
    {
      "inputs": [],
      "name": "owner",
      "outputs": [
        {
          "internalType": "address",
          "name": "",
          "type": "address"
        }
      ],
      "stateMutability": "view",
      "type": "function"
    },
    {
      "inputs": [
        {
          "internalType": "uint256",
          "name": "tokenId",
          "type": "uint256"
        }
      ],
      "name": "ownerOf",
      "outputs": [
        {
          "internalType": "address",
          "name": "",
          "type": "address"
        }
      ],
      "stateMutability": "view",
      "type": "function"
    },
    {
      "inputs": [],
      "name": "payoutToSeller",
      "outputs": [],
      "stateMutability": "payable",
      "type": "function"
    },
    {
      "inputs": [
        {
          "internalType": "address",
          "name": "addr",
          "type": "address"
        }
      ],
      "name": "removeFromFreeMint",
      "outputs": [],
      "stateMutability": "nonpayable",
      "type": "function"
    },
    {
      "inputs": [],
      "name": "renounceOwnership",
      "outputs": [],
      "stateMutability": "nonpayable",
      "type": "function"
    },
    {
      "inputs": [
        {
          "internalType": "address",
          "name": "to",
          "type": "address"
        },
        {
          "internalType": "string",
          "name": "uri",
          "type": "string"
        }
      ],
      "name": "safeMint",
      "outputs": [],
      "stateMutability": "nonpayable",
      "type": "function"
    },
    {
      "inputs": [
        {
          "internalType": "address",
          "name": "from",
          "type": "address"
        },
        {
          "internalType": "address",
          "name": "to",
          "type": "address"
        },
        {
          "internalType": "uint256",
          "name": "tokenId",
          "type": "uint256"
        }
      ],
      "name": "safeTransferFrom",
      "outputs": [],
      "stateMutability": "nonpayable",
      "type": "function"
    },
    {
      "inputs": [
        {
          "internalType": "address",
          "name": "from",
          "type": "address"
        },
        {
          "internalType": "address",
          "name": "to",
          "type": "address"
        },
        {
          "internalType": "uint256",
          "name": "tokenId",
          "type": "uint256"
        },
        {
          "internalType": "bytes",
          "name": "_data",
          "type": "bytes"
        }
      ],
      "name": "safeTransferFrom",
      "outputs": [],
      "stateMutability": "nonpayable",
      "type": "function"
    },
    {
      "inputs": [],
      "name": "sender",
      "outputs": [
        {
          "internalType": "address",
          "name": "",
          "type": "address"
        }
      ],
      "stateMutability": "view",
      "type": "function"
    },
    {
      "inputs": [
        {
          "internalType": "address[]",
          "name": "addresses",
          "type": "address[]"
        }
      ],
      "name": "setAllowList",
      "outputs": [],
      "stateMutability": "nonpayable",
      "type": "function"
    },
    {
      "inputs": [
        {
          "internalType": "address",
          "name": "operator",
          "type": "address"
        },
        {
          "internalType": "bool",
          "name": "approved",
          "type": "bool"
        }
      ],
      "name": "setApprovalForAll",
      "outputs": [],
      "stateMutability": "nonpayable",
      "type": "function"
    },
    {
      "inputs": [
        {
          "internalType": "bool",
          "name": "_isAllowListActive",
          "type": "bool"
        }
      ],
      "name": "setIsAllowListActive",
      "outputs": [],
      "stateMutability": "nonpayable",
      "type": "function"
    },
    {
      "inputs": [
        {
          "internalType": "bytes4",
          "name": "interfaceId",
          "type": "bytes4"
        }
      ],
      "name": "supportsInterface",
      "outputs": [
        {
          "internalType": "bool",
          "name": "",
          "type": "bool"
        }
      ],
      "stateMutability": "view",
      "type": "function"
    },
    {
      "inputs": [],
      "name": "symbol",
      "outputs": [
        {
          "internalType": "string",
          "name": "",
          "type": "string"
        }
      ],
      "stateMutability": "view",
      "type": "function"
    },
    {
      "inputs": [
        {
          "internalType": "uint256",
          "name": "",
          "type": "uint256"
        }
      ],
      "name": "tokenIdToPrice",
      "outputs": [
        {
          "internalType": "uint256",
          "name": "",
          "type": "uint256"
        }
      ],
      "stateMutability": "view",
      "type": "function"
    },
    {
      "inputs": [
        {
          "internalType": "uint256",
          "name": "tokenId",
          "type": "uint256"
        }
      ],
      "name": "tokenURI",
      "outputs": [
        {
          "internalType": "string",
          "name": "",
          "type": "string"
        }
      ],
      "stateMutability": "view",
      "type": "function"
    },
    {
      "inputs": [],
      "name": "totalSupply",
      "outputs": [
        {
          "internalType": "uint256",
          "name": "",
          "type": "uint256"
        }
      ],
      "stateMutability": "view",
      "type": "function"
    },
    {
      "inputs": [
        {
          "internalType": "address",
          "name": "from",
          "type": "address"
        },
        {
          "internalType": "address",
          "name": "to",
          "type": "address"
        },
        {
          "internalType": "uint256",
          "name": "tokenId",
          "type": "uint256"
        }
      ],
      "name": "transferFrom",
      "outputs": [],
      "stateMutability": "nonpayable",
      "type": "function"
    },
    {
      "inputs": [
        {
          "internalType": "address",
          "name": "newOwner",
          "type": "address"
        }
      ],
      "name": "transferOwnership",
      "outputs": [],
      "stateMutability": "nonpayable",
      "type": "function"
    }
  ],
  "bytecode": "0x60806040526101f4600a557313d5e09c1e2648cb94d1ad67ed266d581f6e1926600d60006101000a81548173ffffffffffffffffffffffffffffffffffffffff021916908373ffffffffffffffffffffffffffffffffffffffff160217905550734aead0847a9018eade64051073593c4b4e0b8142600e60006101000a81548173ffffffffffffffffffffffffffffffffffffffff021916908373ffffffffffffffffffffffffffffffffffffffff16021790555073a957a7f4d684966909680119a0cb06a593dc0645600f60006101000a81548173ffffffffffffffffffffffffffffffffffffffff021916908373ffffffffffffffffffffffffffffffffffffffff160217905550731aef2e32563b98480173014509352532d9a507a9601060006101000a81548173ffffffffffffffffffffffffffffffffffffffff021916908373ffffffffffffffffffffffffffffffffffffffff1602179055506000601260006101000a81548160ff0219169083151502179055503480156200018657600080fd5b506040518060400160405280601381526020017f4c757865526163696e674e4654205069737461000000000000000000000000008152506040518060400160405280600981526020017f4c5558455049535441000000000000000000000000000000000000000000000081525081600090805190602001906200020b9291906200035c565b508060019080519060200190620002249291906200035c565b505050620002476200023b6200028e60201b60201c565b6200029660201b60201c565b33600b60006101000a81548173ffffffffffffffffffffffffffffffffffffffff021916908373ffffffffffffffffffffffffffffffffffffffff16021790555062000471565b600033905090565b6000600760009054906101000a900473ffffffffffffffffffffffffffffffffffffffff16905081600760006101000a81548173ffffffffffffffffffffffffffffffffffffffff021916908373ffffffffffffffffffffffffffffffffffffffff1602179055508173ffffffffffffffffffffffffffffffffffffffff168173ffffffffffffffffffffffffffffffffffffffff167f8be0079c531659141344cd1fd0a4f28419497f9722a3daafe3b4186f6b6457e060405160405180910390a35050565b8280546200036a906200043b565b90600052602060002090601f0160209004810192826200038e5760008555620003da565b82601f10620003a957805160ff1916838001178555620003da565b82800160010185558215620003da579182015b82811115620003d9578251825591602001919060010190620003bc565b5b509050620003e99190620003ed565b5090565b5b8082111562000408576000816000905550600101620003ee565b5090565b7f4e487b7100000000000000000000000000000000000000000000000000000000600052602260045260246000fd5b600060028204905060018216806200045457607f821691505b602082108114156200046b576200046a6200040c565b5b50919050565b614ec780620004816000396000f3fe60806040526004361061021a5760003560e01c8063715018a611610123578063bbb5e8d3116100ab578063d4f8db911161006f578063d4f8db911461079f578063d96a094a146107c8578063e985e9c5146107e4578063f2fde38b14610821578063f4812eb91461084a5761021a565b8063bbb5e8d3146106aa578063c87b56dd146106d3578063c887eac914610710578063d204c45e1461074d578063d4991312146107765761021a565b806395d89b41116100f257806395d89b41146105c557806398cd06f0146105f05780639f1cabc61461061b578063a22cb46514610658578063b88d4fde146106815761021a565b8063715018a614610531578063718bc4af146105485780638da5cb5b14610571578063950f87ac1461059c5761021a565b806342842e0e116101a657806357fb39b01161017557806357fb39b01461043a5780636352211e146104635780636447c35d146104a057806367e404ce146104c957806370a08231146104f45761021a565b806342842e0e146103a157806342966c68146103ca5780634a18503d146103f35780634c39a7491461040f5761021a565b8063095ea7b3116101ed578063095ea7b3146102ef57806318160ddd1461031857806323b872dd1461034357806329bb3c891461036c57806329fc6bae146103765761021a565b806301ffc9a71461021f57806306661abd1461025c57806306fdde0314610287578063081812fc146102b2575b600080fd5b34801561022b57600080fd5b50610246600480360381019061024191906133a0565b610887565b60405161025391906133e8565b60405180910390f35b34801561026857600080fd5b50610271610969565b60405161027e919061341c565b60405180910390f35b34801561029357600080fd5b5061029c610986565b6040516102a991906134d0565b60405180910390f35b3480156102be57600080fd5b506102d960048036038101906102d4919061351e565b610a18565b6040516102e6919061358c565b60405180910390f35b3480156102fb57600080fd5b50610316600480360381019061031191906135d3565b610a9d565b005b34801561032457600080fd5b5061032d610bb5565b60405161033a919061341c565b60405180910390f35b34801561034f57600080fd5b5061036a60048036038101906103659190613613565b610bbb565b005b610374610c1b565b005b34801561038257600080fd5b5061038b610cdd565b60405161039891906133e8565b60405180910390f35b3480156103ad57600080fd5b506103c860048036038101906103c39190613613565b610cf0565b005b3480156103d657600080fd5b506103f160048036038101906103ec919061351e565b610d10565b005b61040d6004803603810190610408919061351e565b610d6c565b005b34801561041b57600080fd5b50610424610f20565b6040516104319190613687565b60405180910390f35b34801561044657600080fd5b50610461600480360381019061045c91906136a2565b610f46565b005b34801561046f57600080fd5b5061048a6004803603810190610485919061351e565b61101d565b604051610497919061358c565b60405180910390f35b3480156104ac57600080fd5b506104c760048036038101906104c29190613734565b6110cf565b005b3480156104d557600080fd5b506104de6111f0565b6040516104eb919061358c565b60405180910390f35b34801561050057600080fd5b5061051b600480360381019061051691906136a2565b611216565b604051610528919061341c565b60405180910390f35b34801561053d57600080fd5b506105466112ce565b005b34801561055457600080fd5b5061056f600480360381019061056a91906137ad565b611356565b005b34801561057d57600080fd5b506105866113ef565b604051610593919061358c565b60405180910390f35b3480156105a857600080fd5b506105c360048036038101906105be91906136a2565b611419565b005b3480156105d157600080fd5b506105da6114f0565b6040516105e791906134d0565b60405180910390f35b3480156105fc57600080fd5b50610605611582565b6040516106129190613898565b60405180910390f35b34801561062757600080fd5b50610642600480360381019061063d91906139ea565b611593565b60405161064f91906133e8565b60405180910390f35b34801561066457600080fd5b5061067f600480360381019061067a9190613a33565b6115be565b005b34801561068d57600080fd5b506106a860048036038101906106a39190613b14565b6115d4565b005b3480156106b657600080fd5b506106d160048036038101906106cc9190613b97565b611636565b005b3480156106df57600080fd5b506106fa60048036038101906106f5919061351e565b61170b565b60405161070791906134d0565b60405180910390f35b34801561071c57600080fd5b506107376004803603810190610732919061351e565b61171d565b6040516107449190613898565b60405180910390f35b34801561075957600080fd5b50610774600480360381019061076f9190613bd7565b611be0565b005b34801561078257600080fd5b5061079d6004803603810190610798919061351e565b611c8d565b005b3480156107ab57600080fd5b506107c660048036038101906107c191906136a2565b611d1f565b005b6107e260048036038101906107dd919061351e565b611ddf565b005b3480156107f057600080fd5b5061080b60048036038101906108069190613c33565b611efa565b60405161081891906133e8565b60405180910390f35b34801561082d57600080fd5b50610848600480360381019061084391906136a2565b611f8e565b005b34801561085657600080fd5b50610871600480360381019061086c919061351e565b612086565b60405161087e919061341c565b60405180910390f35b60007f80ac58cd000000000000000000000000000000000000000000000000000000007bffffffffffffffffffffffffffffffffffffffffffffffffffffffff1916827bffffffffffffffffffffffffffffffffffffffffffffffffffffffff1916148061095257507f5b5e139f000000000000000000000000000000000000000000000000000000007bffffffffffffffffffffffffffffffffffffffffffffffffffffffff1916827bffffffffffffffffffffffffffffffffffffffffffffffffffffffff1916145b8061096257506109618261209e565b5b9050919050565b600060016109776008612108565b6109819190613ca2565b905090565b60606000805461099590613d27565b80601f01602080910402602001604051908101604052809291908181526020018280546109c190613d27565b8015610a0e5780601f106109e357610100808354040283529160200191610a0e565b820191906000526020600020905b8154815290600101906020018083116109f157829003601f168201915b5050505050905090565b6000610a2382612116565b610a62576040517f08c379a0000000000000000000000000000000000000000000000000000000008152600401610a5990613dcb565b60405180910390fd5b6004600083815260200190815260200160002060009054906101000a900473ffffffffffffffffffffffffffffffffffffffff169050919050565b6000610aa88261101d565b90508073ffffffffffffffffffffffffffffffffffffffff168373ffffffffffffffffffffffffffffffffffffffff161415610b19576040517f08c379a0000000000000000000000000000000000000000000000000000000008152600401610b1090613e5d565b60405180910390fd5b8073ffffffffffffffffffffffffffffffffffffffff16610b38612182565b73ffffffffffffffffffffffffffffffffffffffff161480610b675750610b6681610b61612182565b611efa565b5b610ba6576040517f08c379a0000000000000000000000000000000000000000000000000000000008152600401610b9d90613eef565b60405180910390fd5b610bb0838361218a565b505050565b600a5481565b610bcc610bc6612182565b82612243565b610c0b576040517f08c379a0000000000000000000000000000000000000000000000000000000008152600401610c0290613f81565b60405180910390fd5b610c16838383612321565b505050565b600b60009054906101000a900473ffffffffffffffffffffffffffffffffffffffff1673ffffffffffffffffffffffffffffffffffffffff163373ffffffffffffffffffffffffffffffffffffffff161415610cdb57600c60009054906101000a900473ffffffffffffffffffffffffffffffffffffffff1673ffffffffffffffffffffffffffffffffffffffff166108fc479081150290604051600060405180830381858888f19350505050158015610cd9573d6000803e3d6000fd5b505b565b601260009054906101000a900460ff1681565b610d0b838383604051806020016040528060008152506115d4565b505050565b610d21610d1b612182565b82612243565b610d60576040517f08c379a0000000000000000000000000000000000000000000000000000000008152600401610d5790614013565b60405180910390fd5b610d6981612588565b50565b60006014600083815260200190815260200160002054905060008111610dc7576040517f08c379a0000000000000000000000000000000000000000000000000000000008152600401610dbe9061407f565b60405180910390fd5b80341015610e0a576040517f08c379a0000000000000000000000000000000000000000000000000000000008152600401610e01906140eb565b60405180910390fd5b6000610e158361101d565b9050610e22813385612321565b600060146000858152602001908152602001600020819055508073ffffffffffffffffffffffffffffffffffffffff166108fc6064606134610e64919061410b565b610e6e9190614194565b9081150290604051600060405180830381858888f19350505050158015610e99573d6000803e3d6000fd5b50601060009054906101000a900473ffffffffffffffffffffffffffffffffffffffff1673ffffffffffffffffffffffffffffffffffffffff166108fc6064600334610ee5919061410b565b610eef9190614194565b9081150290604051600060405180830381858888f19350505050158015610f1a573d6000803e3d6000fd5b50505050565b600c60009054906101000a900473ffffffffffffffffffffffffffffffffffffffff1681565b610f4e612182565b73ffffffffffffffffffffffffffffffffffffffff16610f6c6113ef565b73ffffffffffffffffffffffffffffffffffffffff1614610fc2576040517f08c379a0000000000000000000000000000000000000000000000000000000008152600401610fb990614211565b60405180910390fd5b6001601360008373ffffffffffffffffffffffffffffffffffffffff1673ffffffffffffffffffffffffffffffffffffffff16815260200190815260200160002060006101000a81548160ff02191690831515021790555050565b6000806002600084815260200190815260200160002060009054906101000a900473ffffffffffffffffffffffffffffffffffffffff169050600073ffffffffffffffffffffffffffffffffffffffff168173ffffffffffffffffffffffffffffffffffffffff1614156110c6576040517f08c379a00000000000000000000000000000000000000000000000000000000081526004016110bd906142a3565b60405180910390fd5b80915050919050565b6110d7612182565b73ffffffffffffffffffffffffffffffffffffffff166110f56113ef565b73ffffffffffffffffffffffffffffffffffffffff161461114b576040517f08c379a000000000000000000000000000000000000000000000000000000000815260040161114290614211565b60405180910390fd5b60005b828290508110156111eb57600160116000858585818110611172576111716142c3565b5b905060200201602081019061118791906136a2565b73ffffffffffffffffffffffffffffffffffffffff1673ffffffffffffffffffffffffffffffffffffffff16815260200190815260200160002060006101000a81548160ff02191690831515021790555080806111e3906142f2565b91505061114e565b505050565b600b60009054906101000a900473ffffffffffffffffffffffffffffffffffffffff1681565b60008073ffffffffffffffffffffffffffffffffffffffff168273ffffffffffffffffffffffffffffffffffffffff161415611287576040517f08c379a000000000000000000000000000000000000000000000000000000000815260040161127e906143ad565b60405180910390fd5b600360008373ffffffffffffffffffffffffffffffffffffffff1673ffffffffffffffffffffffffffffffffffffffff168152602001908152602001600020549050919050565b6112d6612182565b73ffffffffffffffffffffffffffffffffffffffff166112f46113ef565b73ffffffffffffffffffffffffffffffffffffffff161461134a576040517f08c379a000000000000000000000000000000000000000000000000000000000815260040161134190614211565b60405180910390fd5b6113546000612594565b565b61135e612182565b73ffffffffffffffffffffffffffffffffffffffff1661137c6113ef565b73ffffffffffffffffffffffffffffffffffffffff16146113d2576040517f08c379a00000000000000000000000000000000000000000000000000000000081526004016113c990614211565b60405180910390fd5b80601260006101000a81548160ff02191690831515021790555050565b6000600760009054906101000a900473ffffffffffffffffffffffffffffffffffffffff16905090565b611421612182565b73ffffffffffffffffffffffffffffffffffffffff1661143f6113ef565b73ffffffffffffffffffffffffffffffffffffffff1614611495576040517f08c379a000000000000000000000000000000000000000000000000000000000815260040161148c90614211565b60405180910390fd5b6000601360008373ffffffffffffffffffffffffffffffffffffffff1673ffffffffffffffffffffffffffffffffffffffff16815260200190815260200160002060006101000a81548160ff02191690831515021790555050565b6060600180546114ff90613d27565b80601f016020809104026020016040519081016040528092919081815260200182805461152b90613d27565b80156115785780601f1061154d57610100808354040283529160200191611578565b820191906000526020600020905b81548152906001019060200180831161155b57829003601f168201915b5050505050905090565b606061158e600161171d565b905090565b600060016009836040516115a79190614409565b908152602001604051809103902054149050919050565b6115d06115c9612182565b838361265a565b5050565b6115e56115df612182565b83612243565b611624576040517f08c379a000000000000000000000000000000000000000000000000000000000815260040161161b90613f81565b60405180910390fd5b611630848484846127c7565b50505050565b61163f8261101d565b73ffffffffffffffffffffffffffffffffffffffff163373ffffffffffffffffffffffffffffffffffffffff16146116ac576040517f08c379a00000000000000000000000000000000000000000000000000000000081526004016116a39061446c565b60405180910390fd5b600081116116ef576040517f08c379a00000000000000000000000000000000000000000000000000000000081526004016116e6906144d8565b60405180910390fd5b8060146000848152602001908152602001600020819055505050565b606061171682612823565b9050919050565b6060601260009054906101000a900460ff16156117c85760011515601160003373ffffffffffffffffffffffffffffffffffffffff1673ffffffffffffffffffffffffffffffffffffffff16815260200190815260200160002060009054906101000a900460ff161515146117c7576040517f08c379a00000000000000000000000000000000000000000000000000000000081526004016117be90614544565b60405180910390fd5b5b60006117d383612975565b905060006117df610969565b905060008251905060008167ffffffffffffffff811115611803576118026138bf565b5b6040519080825280602002602001820160405280156118315781602001602082028036833780820191505090505b50905060005b82811015611b5d57600061186f85878481518110611858576118576142c3565b5b602002602001015161186a9190613ca2565b612a18565b905060016009826040516118839190614409565b90815260200160405180910390205414156118d3576040517f08c379a00000000000000000000000000000000000000000000000000000000081526004016118ca906145b0565b60405180910390fd5b60001515601360003373ffffffffffffffffffffffffffffffffffffffff1673ffffffffffffffffffffffffffffffffffffffff16815260200190815260200160002060009054906101000a900460ff1615151415611acc576000600d60009054906101000a900473ffffffffffffffffffffffffffffffffffffffff1690508073ffffffffffffffffffffffffffffffffffffffff166323b872dd33600f60009054906101000a900473ffffffffffffffffffffffffffffffffffffffff1669148a616ad7f95aa000006040518463ffffffff1660e01b81526004016119bc93929190614615565b602060405180830381600087803b1580156119d657600080fd5b505af11580156119ea573d6000803e3d6000fd5b505050506040513d601f19601f82011682018060405250810190611a0e9190614661565b508073ffffffffffffffffffffffffffffffffffffffff166323b872dd33600e60009054906101000a900473ffffffffffffffffffffffffffffffffffffffff1668a2a15d09519be000006040518463ffffffff1660e01b8152600401611a77939291906146c9565b602060405180830381600087803b158015611a9157600080fd5b505af1158015611aa5573d6000803e3d6000fd5b505050506040513d601f19601f82011682018060405250810190611ac99190614661565b50505b60006001611ada6008612108565b611ae49190613ca2565b9050611af06008612b79565b611afa3382612b8f565b611b048183612d69565b6001600983604051611b169190614409565b90815260200160405180910390208190555080848481518110611b3c57611b3b6142c3565b5b60200260200101818152505050508080611b55906142f2565b915050611837565b50611b66610c1b565b601260009054906101000a900460ff1615611bd4576000601160003373ffffffffffffffffffffffffffffffffffffffff1673ffffffffffffffffffffffffffffffffffffffff16815260200190815260200160002060006101000a81548160ff0219169083151502179055505b80945050505050919050565b611be8612182565b73ffffffffffffffffffffffffffffffffffffffff16611c066113ef565b73ffffffffffffffffffffffffffffffffffffffff1614611c5c576040517f08c379a0000000000000000000000000000000000000000000000000000000008152600401611c5390614211565b60405180910390fd5b6000611c686008612108565b9050611c746008612b79565b611c7e8382612ddd565b611c888183612d69565b505050565b611c968161101d565b73ffffffffffffffffffffffffffffffffffffffff163373ffffffffffffffffffffffffffffffffffffffff1614611d03576040517f08c379a0000000000000000000000000000000000000000000000000000000008152600401611cfa9061446c565b60405180910390fd5b6000601460008381526020019081526020016000208190555050565b611d27612182565b73ffffffffffffffffffffffffffffffffffffffff16611d456113ef565b73ffffffffffffffffffffffffffffffffffffffff1614611d9b576040517f08c379a0000000000000000000000000000000000000000000000000000000008152600401611d9290614211565b60405180910390fd5b80600d60006101000a81548173ffffffffffffffffffffffffffffffffffffffff021916908373ffffffffffffffffffffffffffffffffffffffff16021790555050565b60006014600083815260200190815260200160002054905060008111611e3a576040517f08c379a0000000000000000000000000000000000000000000000000000000008152600401611e319061407f565b60405180910390fd5b80341015611e7d576040517f08c379a0000000000000000000000000000000000000000000000000000000008152600401611e74906140eb565b60405180910390fd5b6000611e888361101d565b9050611e95813385612321565b600060146000858152602001908152602001600020819055508073ffffffffffffffffffffffffffffffffffffffff166108fc349081150290604051600060405180830381858888f19350505050158015611ef4573d6000803e3d6000fd5b50505050565b6000600560008473ffffffffffffffffffffffffffffffffffffffff1673ffffffffffffffffffffffffffffffffffffffff16815260200190815260200160002060008373ffffffffffffffffffffffffffffffffffffffff1673ffffffffffffffffffffffffffffffffffffffff16815260200190815260200160002060009054906101000a900460ff16905092915050565b611f96612182565b73ffffffffffffffffffffffffffffffffffffffff16611fb46113ef565b73ffffffffffffffffffffffffffffffffffffffff161461200a576040517f08c379a000000000000000000000000000000000000000000000000000000000815260040161200190614211565b60405180910390fd5b600073ffffffffffffffffffffffffffffffffffffffff168173ffffffffffffffffffffffffffffffffffffffff16141561207a576040517f08c379a000000000000000000000000000000000000000000000000000000000815260040161207190614772565b60405180910390fd5b61208381612594565b50565b60146020528060005260406000206000915090505481565b60007f01ffc9a7000000000000000000000000000000000000000000000000000000007bffffffffffffffffffffffffffffffffffffffffffffffffffffffff1916827bffffffffffffffffffffffffffffffffffffffffffffffffffffffff1916149050919050565b600081600001549050919050565b60008073ffffffffffffffffffffffffffffffffffffffff166002600084815260200190815260200160002060009054906101000a900473ffffffffffffffffffffffffffffffffffffffff1673ffffffffffffffffffffffffffffffffffffffff1614159050919050565b600033905090565b816004600083815260200190815260200160002060006101000a81548173ffffffffffffffffffffffffffffffffffffffff021916908373ffffffffffffffffffffffffffffffffffffffff160217905550808273ffffffffffffffffffffffffffffffffffffffff166121fd8361101d565b73ffffffffffffffffffffffffffffffffffffffff167f8c5be1e5ebec7d5bd14f71427d1e84f3dd0314c0f7b2291e5b200ac8c7c3b92560405160405180910390a45050565b600061224e82612116565b61228d576040517f08c379a000000000000000000000000000000000000000000000000000000000815260040161228490614804565b60405180910390fd5b60006122988361101d565b90508073ffffffffffffffffffffffffffffffffffffffff168473ffffffffffffffffffffffffffffffffffffffff16148061230757508373ffffffffffffffffffffffffffffffffffffffff166122ef84610a18565b73ffffffffffffffffffffffffffffffffffffffff16145b8061231857506123178185611efa565b5b91505092915050565b8273ffffffffffffffffffffffffffffffffffffffff166123418261101d565b73ffffffffffffffffffffffffffffffffffffffff1614612397576040517f08c379a000000000000000000000000000000000000000000000000000000000815260040161238e90614896565b60405180910390fd5b600073ffffffffffffffffffffffffffffffffffffffff168273ffffffffffffffffffffffffffffffffffffffff161415612407576040517f08c379a00000000000000000000000000000000000000000000000000000000081526004016123fe90614928565b60405180910390fd5b612412838383612dfb565b61241d60008261218a565b6001600360008573ffffffffffffffffffffffffffffffffffffffff1673ffffffffffffffffffffffffffffffffffffffff168152602001908152602001600020600082825461246d9190614948565b925050819055506001600360008473ffffffffffffffffffffffffffffffffffffffff1673ffffffffffffffffffffffffffffffffffffffff16815260200190815260200160002060008282546124c49190613ca2565b92505081905550816002600083815260200190815260200160002060006101000a81548173ffffffffffffffffffffffffffffffffffffffff021916908373ffffffffffffffffffffffffffffffffffffffff160217905550808273ffffffffffffffffffffffffffffffffffffffff168473ffffffffffffffffffffffffffffffffffffffff167fddf252ad1be2c89b69c2b068fc378daa952ba7f163c4a11628f55a4df523b3ef60405160405180910390a4612583838383612e00565b505050565b61259181612e05565b50565b6000600760009054906101000a900473ffffffffffffffffffffffffffffffffffffffff16905081600760006101000a81548173ffffffffffffffffffffffffffffffffffffffff021916908373ffffffffffffffffffffffffffffffffffffffff1602179055508173ffffffffffffffffffffffffffffffffffffffff168173ffffffffffffffffffffffffffffffffffffffff167f8be0079c531659141344cd1fd0a4f28419497f9722a3daafe3b4186f6b6457e060405160405180910390a35050565b8173ffffffffffffffffffffffffffffffffffffffff168373ffffffffffffffffffffffffffffffffffffffff1614156126c9576040517f08c379a00000000000000000000000000000000000000000000000000000000081526004016126c0906149c8565b60405180910390fd5b80600560008573ffffffffffffffffffffffffffffffffffffffff1673ffffffffffffffffffffffffffffffffffffffff16815260200190815260200160002060008473ffffffffffffffffffffffffffffffffffffffff1673ffffffffffffffffffffffffffffffffffffffff16815260200190815260200160002060006101000a81548160ff0219169083151502179055508173ffffffffffffffffffffffffffffffffffffffff168373ffffffffffffffffffffffffffffffffffffffff167f17307eab39ab6107e8899845ad3d59bd9653f200f220920489ca2b5937696c31836040516127ba91906133e8565b60405180910390a3505050565b6127d2848484612321565b6127de84848484612e58565b61281d576040517f08c379a000000000000000000000000000000000000000000000000000000000815260040161281490614a5a565b60405180910390fd5b50505050565b606061282e82612116565b61286d576040517f08c379a000000000000000000000000000000000000000000000000000000000815260040161286490614aec565b60405180910390fd5b600060066000848152602001908152602001600020805461288d90613d27565b80601f01602080910402602001604051908101604052809291908181526020018280546128b990613d27565b80156129065780601f106128db57610100808354040283529160200191612906565b820191906000526020600020905b8154815290600101906020018083116128e957829003601f168201915b505050505090506000612917612fef565b905060008151141561292d578192505050612970565b60008251111561296257808260405160200161294a929190614b0c565b60405160208183030381529060405292505050612970565b61296b8461300f565b925050505b919050565b606060008267ffffffffffffffff811115612993576129926138bf565b5b6040519080825280602002602001820160405280156129c15781602001602082028036833780820191505090505b50905060005b83811015612a0e576001816129dc9190613ca2565b8282815181106129ef576129ee6142c3565b5b6020026020010181815250508080612a06906142f2565b9150506129c7565b5080915050919050565b60606000821415612a60576040518060400160405280600181526020017f30000000000000000000000000000000000000000000000000000000000000008152509050612b74565b600082905060005b60008214612a92578080612a7b906142f2565b915050600a82612a8b9190614194565b9150612a68565b60008167ffffffffffffffff811115612aae57612aad6138bf565b5b6040519080825280601f01601f191660200182016040528015612ae05781602001600182028036833780820191505090505b5090505b60008514612b6d57600182612af99190614948565b9150600a85612b089190614b30565b6030612b149190613ca2565b60f81b818381518110612b2a57612b296142c3565b5b60200101907effffffffffffffffffffffffffffffffffffffffffffffffffffffffffffff1916908160001a905350600a85612b669190614194565b9450612ae4565b8093505050505b919050565b6001816000016000828254019250508190555050565b600073ffffffffffffffffffffffffffffffffffffffff168273ffffffffffffffffffffffffffffffffffffffff161415612bff576040517f08c379a0000000000000000000000000000000000000000000000000000000008152600401612bf690614bad565b60405180910390fd5b612c0881612116565b15612c48576040517f08c379a0000000000000000000000000000000000000000000000000000000008152600401612c3f90614c19565b60405180910390fd5b612c5460008383612dfb565b6001600360008473ffffffffffffffffffffffffffffffffffffffff1673ffffffffffffffffffffffffffffffffffffffff1681526020019081526020016000206000828254612ca49190613ca2565b92505081905550816002600083815260200190815260200160002060006101000a81548173ffffffffffffffffffffffffffffffffffffffff021916908373ffffffffffffffffffffffffffffffffffffffff160217905550808273ffffffffffffffffffffffffffffffffffffffff16600073ffffffffffffffffffffffffffffffffffffffff167fddf252ad1be2c89b69c2b068fc378daa952ba7f163c4a11628f55a4df523b3ef60405160405180910390a4612d6560008383612e00565b5050565b612d7282612116565b612db1576040517f08c379a0000000000000000000000000000000000000000000000000000000008152600401612da890614cab565b60405180910390fd5b80600660008481526020019081526020016000209080519060200190612dd8929190613251565b505050565b612df78282604051806020016040528060008152506130b6565b5050565b505050565b505050565b612e0e81613111565b6000600660008381526020019081526020016000208054612e2e90613d27565b905014612e5557600660008281526020019081526020016000206000612e5491906132d7565b5b50565b6000612e798473ffffffffffffffffffffffffffffffffffffffff1661322e565b15612fe2578373ffffffffffffffffffffffffffffffffffffffff1663150b7a02612ea2612182565b8786866040518563ffffffff1660e01b8152600401612ec49493929190614d20565b602060405180830381600087803b158015612ede57600080fd5b505af1925050508015612f0f57506040513d601f19601f82011682018060405250810190612f0c9190614d81565b60015b612f92573d8060008114612f3f576040519150601f19603f3d011682016040523d82523d6000602084013e612f44565b606091505b50600081511415612f8a576040517f08c379a0000000000000000000000000000000000000000000000000000000008152600401612f8190614a5a565b60405180910390fd5b805181602001fd5b63150b7a0260e01b7bffffffffffffffffffffffffffffffffffffffffffffffffffffffff1916817bffffffffffffffffffffffffffffffffffffffffffffffffffffffff191614915050612fe7565b600190505b949350505050565b6060604051806080016040528060518152602001614e4160519139905090565b606061301a82612116565b613059576040517f08c379a000000000000000000000000000000000000000000000000000000000815260040161305090614e20565b60405180910390fd5b6000613063612fef565b9050600081511161308357604051806020016040528060008152506130ae565b8061308d84612a18565b60405160200161309e929190614b0c565b6040516020818303038152906040525b915050919050565b6130c08383612b8f565b6130cd6000848484612e58565b61310c576040517f08c379a000000000000000000000000000000000000000000000000000000000815260040161310390614a5a565b60405180910390fd5b505050565b600061311c8261101d565b905061312a81600084612dfb565b61313560008361218a565b6001600360008373ffffffffffffffffffffffffffffffffffffffff1673ffffffffffffffffffffffffffffffffffffffff16815260200190815260200160002060008282546131859190614948565b925050819055506002600083815260200190815260200160002060006101000a81549073ffffffffffffffffffffffffffffffffffffffff021916905581600073ffffffffffffffffffffffffffffffffffffffff168273ffffffffffffffffffffffffffffffffffffffff167fddf252ad1be2c89b69c2b068fc378daa952ba7f163c4a11628f55a4df523b3ef60405160405180910390a461322a81600084612e00565b5050565b6000808273ffffffffffffffffffffffffffffffffffffffff163b119050919050565b82805461325d90613d27565b90600052602060002090601f01602090048101928261327f57600085556132c6565b82601f1061329857805160ff19168380011785556132c6565b828001600101855582156132c6579182015b828111156132c55782518255916020019190600101906132aa565b5b5090506132d39190613317565b5090565b5080546132e390613d27565b6000825580601f106132f55750613314565b601f0160209004906000526020600020908101906133139190613317565b5b50565b5b80821115613330576000816000905550600101613318565b5090565b6000604051905090565b600080fd5b600080fd5b60007fffffffff0000000000000000000000000000000000000000000000000000000082169050919050565b61337d81613348565b811461338857600080fd5b50565b60008135905061339a81613374565b92915050565b6000602082840312156133b6576133b561333e565b5b60006133c48482850161338b565b91505092915050565b60008115159050919050565b6133e2816133cd565b82525050565b60006020820190506133fd60008301846133d9565b92915050565b6000819050919050565b61341681613403565b82525050565b6000602082019050613431600083018461340d565b92915050565b600081519050919050565b600082825260208201905092915050565b60005b83811015613471578082015181840152602081019050613456565b83811115613480576000848401525b50505050565b6000601f19601f8301169050919050565b60006134a282613437565b6134ac8185613442565b93506134bc818560208601613453565b6134c581613486565b840191505092915050565b600060208201905081810360008301526134ea8184613497565b905092915050565b6134fb81613403565b811461350657600080fd5b50565b600081359050613518816134f2565b92915050565b6000602082840312156135345761353361333e565b5b600061354284828501613509565b91505092915050565b600073ffffffffffffffffffffffffffffffffffffffff82169050919050565b60006135768261354b565b9050919050565b6135868161356b565b82525050565b60006020820190506135a1600083018461357d565b92915050565b6135b08161356b565b81146135bb57600080fd5b50565b6000813590506135cd816135a7565b92915050565b600080604083850312156135ea576135e961333e565b5b60006135f8858286016135be565b925050602061360985828601613509565b9150509250929050565b60008060006060848603121561362c5761362b61333e565b5b600061363a868287016135be565b935050602061364b868287016135be565b925050604061365c86828701613509565b9150509250925092565b60006136718261354b565b9050919050565b61368181613666565b82525050565b600060208201905061369c6000830184613678565b92915050565b6000602082840312156136b8576136b761333e565b5b60006136c6848285016135be565b91505092915050565b600080fd5b600080fd5b600080fd5b60008083601f8401126136f4576136f36136cf565b5b8235905067ffffffffffffffff811115613711576137106136d4565b5b60208301915083602082028301111561372d5761372c6136d9565b5b9250929050565b6000806020838503121561374b5761374a61333e565b5b600083013567ffffffffffffffff81111561376957613768613343565b5b613775858286016136de565b92509250509250929050565b61378a816133cd565b811461379557600080fd5b50565b6000813590506137a781613781565b92915050565b6000602082840312156137c3576137c261333e565b5b60006137d184828501613798565b91505092915050565b600081519050919050565b600082825260208201905092915050565b6000819050602082019050919050565b61380f81613403565b82525050565b60006138218383613806565b60208301905092915050565b6000602082019050919050565b6000613845826137da565b61384f81856137e5565b935061385a836137f6565b8060005b8381101561388b5781516138728882613815565b975061387d8361382d565b92505060018101905061385e565b5085935050505092915050565b600060208201905081810360008301526138b2818461383a565b905092915050565b600080fd5b7f4e487b7100000000000000000000000000000000000000000000000000000000600052604160045260246000fd5b6138f782613486565b810181811067ffffffffffffffff82111715613916576139156138bf565b5b80604052505050565b6000613929613334565b905061393582826138ee565b919050565b600067ffffffffffffffff821115613955576139546138bf565b5b61395e82613486565b9050602081019050919050565b82818337600083830152505050565b600061398d6139888461393a565b61391f565b9050828152602081018484840111156139a9576139a86138ba565b5b6139b484828561396b565b509392505050565b600082601f8301126139d1576139d06136cf565b5b81356139e184826020860161397a565b91505092915050565b600060208284031215613a00576139ff61333e565b5b600082013567ffffffffffffffff811115613a1e57613a1d613343565b5b613a2a848285016139bc565b91505092915050565b60008060408385031215613a4a57613a4961333e565b5b6000613a58858286016135be565b9250506020613a6985828601613798565b9150509250929050565b600067ffffffffffffffff821115613a8e57613a8d6138bf565b5b613a9782613486565b9050602081019050919050565b6000613ab7613ab284613a73565b61391f565b905082815260208101848484011115613ad357613ad26138ba565b5b613ade84828561396b565b509392505050565b600082601f830112613afb57613afa6136cf565b5b8135613b0b848260208601613aa4565b91505092915050565b60008060008060808587031215613b2e57613b2d61333e565b5b6000613b3c878288016135be565b9450506020613b4d878288016135be565b9350506040613b5e87828801613509565b925050606085013567ffffffffffffffff811115613b7f57613b7e613343565b5b613b8b87828801613ae6565b91505092959194509250565b60008060408385031215613bae57613bad61333e565b5b6000613bbc85828601613509565b9250506020613bcd85828601613509565b9150509250929050565b60008060408385031215613bee57613bed61333e565b5b6000613bfc858286016135be565b925050602083013567ffffffffffffffff811115613c1d57613c1c613343565b5b613c29858286016139bc565b9150509250929050565b60008060408385031215613c4a57613c4961333e565b5b6000613c58858286016135be565b9250506020613c69858286016135be565b9150509250929050565b7f4e487b7100000000000000000000000000000000000000000000000000000000600052601160045260246000fd5b6000613cad82613403565b9150613cb883613403565b9250827fffffffffffffffffffffffffffffffffffffffffffffffffffffffffffffffff03821115613ced57613cec613c73565b5b828201905092915050565b7f4e487b7100000000000000000000000000000000000000000000000000000000600052602260045260246000fd5b60006002820490506001821680613d3f57607f821691505b60208210811415613d5357613d52613cf8565b5b50919050565b7f4552433732313a20617070726f76656420717565727920666f72206e6f6e657860008201527f697374656e7420746f6b656e0000000000000000000000000000000000000000602082015250565b6000613db5602c83613442565b9150613dc082613d59565b604082019050919050565b60006020820190508181036000830152613de481613da8565b9050919050565b7f4552433732313a20617070726f76616c20746f2063757272656e74206f776e6560008201527f7200000000000000000000000000000000000000000000000000000000000000602082015250565b6000613e47602183613442565b9150613e5282613deb565b604082019050919050565b60006020820190508181036000830152613e7681613e3a565b9050919050565b7f4552433732313a20617070726f76652063616c6c6572206973206e6f74206f7760008201527f6e6572206e6f7220617070726f76656420666f7220616c6c0000000000000000602082015250565b6000613ed9603883613442565b9150613ee482613e7d565b604082019050919050565b60006020820190508181036000830152613f0881613ecc565b9050919050565b7f4552433732313a207472616e736665722063616c6c6572206973206e6f74206f60008201527f776e6572206e6f7220617070726f766564000000000000000000000000000000602082015250565b6000613f6b603183613442565b9150613f7682613f0f565b604082019050919050565b60006020820190508181036000830152613f9a81613f5e565b9050919050565b7f4552433732314275726e61626c653a2063616c6c6572206973206e6f74206f7760008201527f6e6572206e6f7220617070726f76656400000000000000000000000000000000602082015250565b6000613ffd603083613442565b915061400882613fa1565b604082019050919050565b6000602082019050818103600083015261402c81613ff0565b9050919050565b7f5468697320746f6b656e206973206e6f7420666f722073616c65000000000000600082015250565b6000614069601a83613442565b915061407482614033565b602082019050919050565b600060208201905081810360008301526140988161405c565b9050919050565b7f496e636f72726563742076616c75650000000000000000000000000000000000600082015250565b60006140d5600f83613442565b91506140e08261409f565b602082019050919050565b60006020820190508181036000830152614104816140c8565b9050919050565b600061411682613403565b915061412183613403565b9250817fffffffffffffffffffffffffffffffffffffffffffffffffffffffffffffffff048311821515161561415a57614159613c73565b5b828202905092915050565b7f4e487b7100000000000000000000000000000000000000000000000000000000600052601260045260246000fd5b600061419f82613403565b91506141aa83613403565b9250826141ba576141b9614165565b5b828204905092915050565b7f4f776e61626c653a2063616c6c6572206973206e6f7420746865206f776e6572600082015250565b60006141fb602083613442565b9150614206826141c5565b602082019050919050565b6000602082019050818103600083015261422a816141ee565b9050919050565b7f4552433732313a206f776e657220717565727920666f72206e6f6e657869737460008201527f656e7420746f6b656e0000000000000000000000000000000000000000000000602082015250565b600061428d602983613442565b915061429882614231565b604082019050919050565b600060208201905081810360008301526142bc81614280565b9050919050565b7f4e487b7100000000000000000000000000000000000000000000000000000000600052603260045260246000fd5b60006142fd82613403565b91507fffffffffffffffffffffffffffffffffffffffffffffffffffffffffffffffff8214156143305761432f613c73565b5b600182019050919050565b7f4552433732313a2062616c616e636520717565727920666f7220746865207a6560008201527f726f206164647265737300000000000000000000000000000000000000000000602082015250565b6000614397602a83613442565b91506143a28261433b565b604082019050919050565b600060208201905081810360008301526143c68161438a565b9050919050565b600081905092915050565b60006143e382613437565b6143ed81856143cd565b93506143fd818560208601613453565b80840191505092915050565b600061441582846143d8565b915081905092915050565b7f4e6f74206f776e6572206f66207468697320746f6b656e000000000000000000600082015250565b6000614456601783613442565b915061446182614420565b602082019050919050565b6000602082019050818103600083015261448581614449565b9050919050565b7f5072696365207a65726f00000000000000000000000000000000000000000000600082015250565b60006144c2600a83613442565b91506144cd8261448c565b602082019050919050565b600060208201905081810360008301526144f1816144b5565b9050919050565b7f4e6f74206f6e20616c6c6f7765646c6973740000000000000000000000000000600082015250565b600061452e601283613442565b9150614539826144f8565b602082019050919050565b6000602082019050818103600083015261455d81614521565b9050919050565b7f4e465420616c7265616479206d696e7465642100000000000000000000000000600082015250565b600061459a601383613442565b91506145a582614564565b602082019050919050565b600060208201905081810360008301526145c98161458d565b9050919050565b6000819050919050565b6000819050919050565b60006145ff6145fa6145f5846145d0565b6145da565b613403565b9050919050565b61460f816145e4565b82525050565b600060608201905061462a600083018661357d565b614637602083018561357d565b6146446040830184614606565b949350505050565b60008151905061465b81613781565b92915050565b6000602082840312156146775761467661333e565b5b60006146858482850161464c565b91505092915050565b6000819050919050565b60006146b36146ae6146a98461468e565b6145da565b613403565b9050919050565b6146c381614698565b82525050565b60006060820190506146de600083018661357d565b6146eb602083018561357d565b6146f860408301846146ba565b949350505050565b7f4f776e61626c653a206e6577206f776e657220697320746865207a65726f206160008201527f6464726573730000000000000000000000000000000000000000000000000000602082015250565b600061475c602683613442565b915061476782614700565b604082019050919050565b6000602082019050818103600083015261478b8161474f565b9050919050565b7f4552433732313a206f70657261746f7220717565727920666f72206e6f6e657860008201527f697374656e7420746f6b656e0000000000000000000000000000000000000000602082015250565b60006147ee602c83613442565b91506147f982614792565b604082019050919050565b6000602082019050818103600083015261481d816147e1565b9050919050565b7f4552433732313a207472616e736665722066726f6d20696e636f72726563742060008201527f6f776e6572000000000000000000000000000000000000000000000000000000602082015250565b6000614880602583613442565b915061488b82614824565b604082019050919050565b600060208201905081810360008301526148af81614873565b9050919050565b7f4552433732313a207472616e7366657220746f20746865207a65726f2061646460008201527f7265737300000000000000000000000000000000000000000000000000000000602082015250565b6000614912602483613442565b915061491d826148b6565b604082019050919050565b6000602082019050818103600083015261494181614905565b9050919050565b600061495382613403565b915061495e83613403565b92508282101561497157614970613c73565b5b828203905092915050565b7f4552433732313a20617070726f766520746f2063616c6c657200000000000000600082015250565b60006149b2601983613442565b91506149bd8261497c565b602082019050919050565b600060208201905081810360008301526149e1816149a5565b9050919050565b7f4552433732313a207472616e7366657220746f206e6f6e20455243373231526560008201527f63656976657220696d706c656d656e7465720000000000000000000000000000602082015250565b6000614a44603283613442565b9150614a4f826149e8565b604082019050919050565b60006020820190508181036000830152614a7381614a37565b9050919050565b7f45524337323155524953746f726167653a2055524920717565727920666f722060008201527f6e6f6e6578697374656e7420746f6b656e000000000000000000000000000000602082015250565b6000614ad6603183613442565b9150614ae182614a7a565b604082019050919050565b60006020820190508181036000830152614b0581614ac9565b9050919050565b6000614b1882856143d8565b9150614b2482846143d8565b91508190509392505050565b6000614b3b82613403565b9150614b4683613403565b925082614b5657614b55614165565b5b828206905092915050565b7f4552433732313a206d696e7420746f20746865207a65726f2061646472657373600082015250565b6000614b97602083613442565b9150614ba282614b61565b602082019050919050565b60006020820190508181036000830152614bc681614b8a565b9050919050565b7f4552433732313a20746f6b656e20616c7265616479206d696e74656400000000600082015250565b6000614c03601c83613442565b9150614c0e82614bcd565b602082019050919050565b60006020820190508181036000830152614c3281614bf6565b9050919050565b7f45524337323155524953746f726167653a2055524920736574206f66206e6f6e60008201527f6578697374656e7420746f6b656e000000000000000000000000000000000000602082015250565b6000614c95602e83613442565b9150614ca082614c39565b604082019050919050565b60006020820190508181036000830152614cc481614c88565b9050919050565b600081519050919050565b600082825260208201905092915050565b6000614cf282614ccb565b614cfc8185614cd6565b9350614d0c818560208601613453565b614d1581613486565b840191505092915050565b6000608082019050614d35600083018761357d565b614d42602083018661357d565b614d4f604083018561340d565b8181036060830152614d618184614ce7565b905095945050505050565b600081519050614d7b81613374565b92915050565b600060208284031215614d9757614d9661333e565b5b6000614da584828501614d6c565b91505092915050565b7f4552433732314d657461646174613a2055524920717565727920666f72206e6f60008201527f6e6578697374656e7420746f6b656e0000000000000000000000000000000000602082015250565b6000614e0a602f83613442565b9150614e1582614dae565b604082019050919050565b60006020820190508181036000830152614e3981614dfd565b905091905056fe68747470733a2f2f676174657761792e70696e6174612e636c6f75642f697066732f516d58526b417343457a7375326551326d6366376253387252757865447275533143676942326a634355745279722fa2646970667358221220f8a2d4803ae598efefc5790ea49e47444e770410306f18be9b12e1fd7b51672e64736f6c63430008090033",
  "linkReferences": {},
  "deployedLinkReferences": {}
}