{
  "_format": "hh-sol-artifact-1",
  "contractName": "LuxeToken",
  "sourceName": "contracts/Luxe.sol",
  "abi": [
    {
      "inputs": [],
      "stateMutability": "nonpayable",
      "type": "constructor"
    },
    {
      "anonymous": false,
      "inputs": [
        {
          "indexed": true,
          "internalType": "address",
          "name": "owner",
          "type": "address"
        },
        {
          "indexed": true,
          "internalType": "address",
          "name": "spender",
          "type": "address"
        },
        {
          "indexed": false,
          "internalType": "uint256",
          "name": "value",
          "type": "uint256"
        }
      ],
      "name": "Approval",
      "type": "event"
    },
    {
      "anonymous": false,
      "inputs": [
        {
          "indexed": true,
          "internalType": "address",
          "name": "sniper",
          "type": "address"
        }
      ],
      "name": "BoughtEarly",
      "type": "event"
    },
    {
      "anonymous": false,
      "inputs": [
        {
          "indexed": false,
          "internalType": "uint256",
          "name": "amount",
          "type": "uint256"
        }
      ],
      "name": "BuyBackTriggered",
      "type": "event"
    },
    {
      "anonymous": false,
      "inputs": [
        {
          "indexed": true,
          "internalType": "address",
          "name": "account",
          "type": "address"
        },
        {
          "indexed": false,
          "internalType": "bool",
          "name": "isExcluded",
          "type": "bool"
        }
      ],
      "name": "ExcludeFromFees",
      "type": "event"
    },
    {
      "anonymous": false,
      "inputs": [
        {
          "indexed": true,
          "internalType": "address",
          "name": "previousOwner",
          "type": "address"
        },
        {
          "indexed": true,
          "internalType": "address",
          "name": "newOwner",
          "type": "address"
        }
      ],
      "name": "OwnershipTransferred",
      "type": "event"
    },
    {
      "anonymous": false,
      "inputs": [
        {
          "indexed": true,
          "internalType": "address",
          "name": "pair",
          "type": "address"
        },
        {
          "indexed": true,
          "internalType": "bool",
          "name": "value",
          "type": "bool"
        }
      ],
      "name": "SetAutomatedMarketMakerPair",
      "type": "event"
    },
    {
      "anonymous": false,
      "inputs": [
        {
          "indexed": false,
          "internalType": "uint256",
          "name": "tokensSwapped",
          "type": "uint256"
        },
        {
          "indexed": false,
          "internalType": "uint256",
          "name": "ethReceived",
          "type": "uint256"
        },
        {
          "indexed": false,
          "internalType": "uint256",
          "name": "tokensIntoLiquidity",
          "type": "uint256"
        }
      ],
      "name": "SwapAndLiquify",
      "type": "event"
    },
    {
      "anonymous": false,
      "inputs": [
        {
          "indexed": true,
          "internalType": "address",
          "name": "from",
          "type": "address"
        },
        {
          "indexed": true,
          "internalType": "address",
          "name": "to",
          "type": "address"
        },
        {
          "indexed": false,
          "internalType": "uint256",
          "name": "value",
          "type": "uint256"
        }
      ],
      "name": "Transfer",
      "type": "event"
    },
    {
      "anonymous": false,
      "inputs": [
        {
          "indexed": true,
          "internalType": "address",
          "name": "newAddress",
          "type": "address"
        },
        {
          "indexed": true,
          "internalType": "address",
          "name": "oldAddress",
          "type": "address"
        }
      ],
      "name": "UpdateUniswapV2Router",
      "type": "event"
    },
    {
      "anonymous": false,
      "inputs": [
        {
          "indexed": true,
          "internalType": "address",
          "name": "newWallet",
          "type": "address"
        },
        {
          "indexed": true,
          "internalType": "address",
          "name": "oldWallet",
          "type": "address"
        }
      ],
      "name": "buyBackWalletUpdated",
      "type": "event"
    },
    {
      "anonymous": false,
      "inputs": [
        {
          "indexed": true,
          "internalType": "address",
          "name": "newWallet",
          "type": "address"
        },
        {
          "indexed": true,
          "internalType": "address",
          "name": "oldWallet",
          "type": "address"
        }
      ],
      "name": "marketingWalletUpdated",
      "type": "event"
    },
    {
      "inputs": [
        {
          "internalType": "address",
          "name": "",
          "type": "address"
        }
      ],
      "name": "_isExcludedMaxTransactionAmount",
      "outputs": [
        {
          "internalType": "bool",
          "name": "",
          "type": "bool"
        }
      ],
      "stateMutability": "view",
      "type": "function"
    },
    {
      "inputs": [
        {
          "internalType": "address",
          "name": "owner",
          "type": "address"
        },
        {
          "internalType": "address",
          "name": "spender",
          "type": "address"
        }
      ],
      "name": "allowance",
      "outputs": [
        {
          "internalType": "uint256",
          "name": "",
          "type": "uint256"
        }
      ],
      "stateMutability": "view",
      "type": "function"
    },
    {
      "inputs": [
        {
          "internalType": "address",
          "name": "spender",
          "type": "address"
        },
        {
          "internalType": "uint256",
          "name": "amount",
          "type": "uint256"
        }
      ],
      "name": "approve",
      "outputs": [
        {
          "internalType": "bool",
          "name": "",
          "type": "bool"
        }
      ],
      "stateMutability": "nonpayable",
      "type": "function"
    },
    {
      "inputs": [
        {
          "internalType": "address",
          "name": "",
          "type": "address"
        }
      ],
      "name": "automatedMarketMakerPairs",
      "outputs": [
        {
          "internalType": "bool",
          "name": "",
          "type": "bool"
        }
      ],
      "stateMutability": "view",
      "type": "function"
    },
    {
      "inputs": [
        {
          "internalType": "address",
          "name": "account",
          "type": "address"
        }
      ],
      "name": "balanceOf",
      "outputs": [
        {
          "internalType": "uint256",
          "name": "",
          "type": "uint256"
        }
      ],
      "stateMutability": "view",
      "type": "function"
    },
    {
      "inputs": [
        {
          "internalType": "uint256",
          "name": "bnbAmountInWei",
          "type": "uint256"
        }
      ],
      "name": "buyBackTokens",
      "outputs": [],
      "stateMutability": "nonpayable",
      "type": "function"
    },
    {
      "inputs": [],
      "name": "buyBackWallet",
      "outputs": [
        {
          "internalType": "address",
          "name": "",
          "type": "address"
        }
      ],
      "stateMutability": "view",
      "type": "function"
    },
    {
      "inputs": [],
      "name": "buyBuyBackFee",
      "outputs": [
        {
          "internalType": "uint256",
          "name": "",
          "type": "uint256"
        }
      ],
      "stateMutability": "view",
      "type": "function"
    },
    {
      "inputs": [],
      "name": "buyLiquidityFee",
      "outputs": [
        {
          "internalType": "uint256",
          "name": "",
          "type": "uint256"
        }
      ],
      "stateMutability": "view",
      "type": "function"
    },
    {
      "inputs": [],
      "name": "buyMarketingFee",
      "outputs": [
        {
          "internalType": "uint256",
          "name": "",
          "type": "uint256"
        }
      ],
      "stateMutability": "view",
      "type": "function"
    },
    {
      "inputs": [],
      "name": "buyTotalFees",
      "outputs": [
        {
          "internalType": "uint256",
          "name": "",
          "type": "uint256"
        }
      ],
      "stateMutability": "view",
      "type": "function"
    },
    {
      "inputs": [],
      "name": "deadAddress",
      "outputs": [
        {
          "internalType": "address",
          "name": "",
          "type": "address"
        }
      ],
      "stateMutability": "view",
      "type": "function"
    },
    {
      "inputs": [],
      "name": "decimals",
      "outputs": [
        {
          "internalType": "uint8",
          "name": "",
          "type": "uint8"
        }
      ],
      "stateMutability": "view",
      "type": "function"
    },
    {
      "inputs": [
        {
          "internalType": "address",
          "name": "spender",
          "type": "address"
        },
        {
          "internalType": "uint256",
          "name": "subtractedValue",
          "type": "uint256"
        }
      ],
      "name": "decreaseAllowance",
      "outputs": [
        {
          "internalType": "bool",
          "name": "",
          "type": "bool"
        }
      ],
      "stateMutability": "nonpayable",
      "type": "function"
    },
    {
      "inputs": [],
      "name": "disableTransferDelay",
      "outputs": [
        {
          "internalType": "bool",
          "name": "",
          "type": "bool"
        }
      ],
      "stateMutability": "nonpayable",
      "type": "function"
    },
    {
      "inputs": [],
      "name": "enableTrading",
      "outputs": [],
      "stateMutability": "nonpayable",
      "type": "function"
    },
    {
      "inputs": [
        {
          "internalType": "address",
          "name": "account",
          "type": "address"
        },
        {
          "internalType": "bool",
          "name": "excluded",
          "type": "bool"
        }
      ],
      "name": "excludeFromFees",
      "outputs": [],
      "stateMutability": "nonpayable",
      "type": "function"
    },
    {
      "inputs": [
        {
          "internalType": "address",
          "name": "updAds",
          "type": "address"
        },
        {
          "internalType": "bool",
          "name": "isEx",
          "type": "bool"
        }
      ],
      "name": "excludeFromMaxTransaction",
      "outputs": [],
      "stateMutability": "nonpayable",
      "type": "function"
    },
    {
      "inputs": [
        {
          "internalType": "address",
          "name": "spender",
          "type": "address"
        },
        {
          "internalType": "uint256",
          "name": "addedValue",
          "type": "uint256"
        }
      ],
      "name": "increaseAllowance",
      "outputs": [
        {
          "internalType": "bool",
          "name": "",
          "type": "bool"
        }
      ],
      "stateMutability": "nonpayable",
      "type": "function"
    },
    {
      "inputs": [
        {
          "internalType": "address",
          "name": "account",
          "type": "address"
        }
      ],
      "name": "isExcludedFromFees",
      "outputs": [
        {
          "internalType": "bool",
          "name": "",
          "type": "bool"
        }
      ],
      "stateMutability": "view",
      "type": "function"
    },
    {
      "inputs": [],
      "name": "limitsInEffect",
      "outputs": [
        {
          "internalType": "bool",
          "name": "",
          "type": "bool"
        }
      ],
      "stateMutability": "view",
      "type": "function"
    },
    {
      "inputs": [],
      "name": "marketingWallet",
      "outputs": [
        {
          "internalType": "address",
          "name": "",
          "type": "address"
        }
      ],
      "stateMutability": "view",
      "type": "function"
    },
    {
      "inputs": [],
      "name": "maxTransactionAmount",
      "outputs": [
        {
          "internalType": "uint256",
          "name": "",
          "type": "uint256"
        }
      ],
      "stateMutability": "view",
      "type": "function"
    },
    {
      "inputs": [],
      "name": "maxWallet",
      "outputs": [
        {
          "internalType": "uint256",
          "name": "",
          "type": "uint256"
        }
      ],
      "stateMutability": "view",
      "type": "function"
    },
    {
      "inputs": [],
      "name": "name",
      "outputs": [
        {
          "internalType": "string",
          "name": "",
          "type": "string"
        }
      ],
      "stateMutability": "view",
      "type": "function"
    },
    {
      "inputs": [],
      "name": "owner",
      "outputs": [
        {
          "internalType": "address",
          "name": "",
          "type": "address"
        }
      ],
      "stateMutability": "view",
      "type": "function"
    },
    {
      "inputs": [],
      "name": "removeLimits",
      "outputs": [
        {
          "internalType": "bool",
          "name": "",
          "type": "bool"
        }
      ],
      "stateMutability": "nonpayable",
      "type": "function"
    },
    {
      "inputs": [],
      "name": "renounceOwnership",
      "outputs": [],
      "stateMutability": "nonpayable",
      "type": "function"
    },
    {
      "inputs": [],
      "name": "sellBuyBackFee",
      "outputs": [
        {
          "internalType": "uint256",
          "name": "",
          "type": "uint256"
        }
      ],
      "stateMutability": "view",
      "type": "function"
    },
    {
      "inputs": [],
      "name": "sellLiquidityFee",
      "outputs": [
        {
          "internalType": "uint256",
          "name": "",
          "type": "uint256"
        }
      ],
      "stateMutability": "view",
      "type": "function"
    },
    {
      "inputs": [],
      "name": "sellMarketingFee",
      "outputs": [
        {
          "internalType": "uint256",
          "name": "",
          "type": "uint256"
        }
      ],
      "stateMutability": "view",
      "type": "function"
    },
    {
      "inputs": [],
      "name": "sellTotalFees",
      "outputs": [
        {
          "internalType": "uint256",
          "name": "",
          "type": "uint256"
        }
      ],
      "stateMutability": "view",
      "type": "function"
    },
    {
      "inputs": [
        {
          "internalType": "address",
          "name": "pair",
          "type": "address"
        },
        {
          "internalType": "bool",
          "name": "value",
          "type": "bool"
        }
      ],
      "name": "setAutomatedMarketMakerPair",
      "outputs": [],
      "stateMutability": "nonpayable",
      "type": "function"
    },
    {
      "inputs": [],
      "name": "swapEnabled",
      "outputs": [
        {
          "internalType": "bool",
          "name": "",
          "type": "bool"
        }
      ],
      "stateMutability": "view",
      "type": "function"
    },
    {
      "inputs": [],
      "name": "swapTokensAtAmount",
      "outputs": [
        {
          "internalType": "uint256",
          "name": "",
          "type": "uint256"
        }
      ],
      "stateMutability": "view",
      "type": "function"
    },
    {
      "inputs": [],
      "name": "symbol",
      "outputs": [
        {
          "internalType": "string",
          "name": "",
          "type": "string"
        }
      ],
      "stateMutability": "view",
      "type": "function"
    },
    {
      "inputs": [],
      "name": "tokensForBuyBack",
      "outputs": [
        {
          "internalType": "uint256",
          "name": "",
          "type": "uint256"
        }
      ],
      "stateMutability": "view",
      "type": "function"
    },
    {
      "inputs": [],
      "name": "tokensForLiquidity",
      "outputs": [
        {
          "internalType": "uint256",
          "name": "",
          "type": "uint256"
        }
      ],
      "stateMutability": "view",
      "type": "function"
    },
    {
      "inputs": [],
      "name": "tokensForMarketing",
      "outputs": [
        {
          "internalType": "uint256",
          "name": "",
          "type": "uint256"
        }
      ],
      "stateMutability": "view",
      "type": "function"
    },
    {
      "inputs": [],
      "name": "totalSupply",
      "outputs": [
        {
          "internalType": "uint256",
          "name": "",
          "type": "uint256"
        }
      ],
      "stateMutability": "view",
      "type": "function"
    },
    {
      "inputs": [],
      "name": "tradingActive",
      "outputs": [
        {
          "internalType": "bool",
          "name": "",
          "type": "bool"
        }
      ],
      "stateMutability": "view",
      "type": "function"
    },
    {
      "inputs": [],
      "name": "tradingActiveBlock",
      "outputs": [
        {
          "internalType": "uint256",
          "name": "",
          "type": "uint256"
        }
      ],
      "stateMutability": "view",
      "type": "function"
    },
    {
      "inputs": [
        {
          "internalType": "address",
          "name": "recipient",
          "type": "address"
        },
        {
          "internalType": "uint256",
          "name": "amount",
          "type": "uint256"
        }
      ],
      "name": "transfer",
      "outputs": [
        {
          "internalType": "bool",
          "name": "",
          "type": "bool"
        }
      ],
      "stateMutability": "nonpayable",
      "type": "function"
    },
    {
      "inputs": [],
      "name": "transferDelayEnabled",
      "outputs": [
        {
          "internalType": "bool",
          "name": "",
          "type": "bool"
        }
      ],
      "stateMutability": "view",
      "type": "function"
    },
    {
      "inputs": [
        {
          "internalType": "address",
          "name": "sender",
          "type": "address"
        },
        {
          "internalType": "address",
          "name": "recipient",
          "type": "address"
        },
        {
          "internalType": "uint256",
          "name": "amount",
          "type": "uint256"
        }
      ],
      "name": "transferFrom",
      "outputs": [
        {
          "internalType": "bool",
          "name": "",
          "type": "bool"
        }
      ],
      "stateMutability": "nonpayable",
      "type": "function"
    },
    {
      "inputs": [
        {
          "internalType": "address",
          "name": "newOwner",
          "type": "address"
        }
      ],
      "name": "transferOwnership",
      "outputs": [],
      "stateMutability": "nonpayable",
      "type": "function"
    },
    {
      "inputs": [],
      "name": "uniswapV2Pair",
      "outputs": [
        {
          "internalType": "address",
          "name": "",
          "type": "address"
        }
      ],
      "stateMutability": "view",
      "type": "function"
    },
    {
      "inputs": [],
      "name": "uniswapV2Router",
      "outputs": [
        {
          "internalType": "contract IUniswapV2Router02",
          "name": "",
          "type": "address"
        }
      ],
      "stateMutability": "view",
      "type": "function"
    },
    {
      "inputs": [
        {
          "internalType": "address",
          "name": "newWallet",
          "type": "address"
        }
      ],
      "name": "updateBuyBackWallet",
      "outputs": [],
      "stateMutability": "nonpayable",
      "type": "function"
    },
    {
      "inputs": [
        {
          "internalType": "uint256",
          "name": "_marketingFee",
          "type": "uint256"
        },
        {
          "internalType": "uint256",
          "name": "_liquidityFee",
          "type": "uint256"
        },
        {
          "internalType": "uint256",
          "name": "_buyBackFee",
          "type": "uint256"
        }
      ],
      "name": "updateBuyFees",
      "outputs": [],
      "stateMutability": "nonpayable",
      "type": "function"
    },
    {
      "inputs": [
        {
          "internalType": "address",
          "name": "newMarketingWallet",
          "type": "address"
        }
      ],
      "name": "updateMarketingWallet",
      "outputs": [],
      "stateMutability": "nonpayable",
      "type": "function"
    },
    {
      "inputs": [
        {
          "internalType": "uint256",
          "name": "newNum",
          "type": "uint256"
        }
      ],
      "name": "updateMaxAmount",
      "outputs": [],
      "stateMutability": "nonpayable",
      "type": "function"
    },
    {
      "inputs": [
        {
          "internalType": "uint256",
          "name": "_marketingFee",
          "type": "uint256"
        },
        {
          "internalType": "uint256",
          "name": "_liquidityFee",
          "type": "uint256"
        },
        {
          "internalType": "uint256",
          "name": "_buyBackFee",
          "type": "uint256"
        }
      ],
      "name": "updateSellFees",
      "outputs": [],
      "stateMutability": "nonpayable",
      "type": "function"
    },
    {
      "inputs": [
        {
          "internalType": "bool",
          "name": "enabled",
          "type": "bool"
        }
      ],
      "name": "updateSwapEnabled",
      "outputs": [],
      "stateMutability": "nonpayable",
      "type": "function"
    },
    {
      "inputs": [
        {
          "internalType": "uint256",
          "name": "newAmount",
          "type": "uint256"
        }
      ],
      "name": "updateSwapTokensAtAmount",
      "outputs": [
        {
          "internalType": "bool",
          "name": "",
          "type": "bool"
        }
      ],
      "stateMutability": "nonpayable",
      "type": "function"
    },
    {
      "stateMutability": "payable",
      "type": "receive"
    }
  ],
  "bytecode": "0x60c06040526000600b60006101000a81548160ff0219169083151502179055506000600b60016101000a81548160ff0219169083151502179055506000600b60026101000a81548160ff0219169083151502179055506000600e60006101000a81548160ff0219169083151502179055503480156200007d57600080fd5b506040518060400160405280600981526020017f4c757865546f6b656e00000000000000000000000000000000000000000000008152506040518060400160405280600981526020017f4c757865546f6b656e000000000000000000000000000000000000000000000081525081600390805190602001906200010292919062000de2565b5080600490805190602001906200011b92919062000de2565b5050506000620001306200070360201b60201c565b905080600560006101000a81548173ffffffffffffffffffffffffffffffffffffffff021916908373ffffffffffffffffffffffffffffffffffffffff1602179055508073ffffffffffffffffffffffffffffffffffffffff16600073ffffffffffffffffffffffffffffffffffffffff167f8be0079c531659141344cd1fd0a4f28419497f9722a3daafe3b4186f6b6457e060405160405180910390a3506000732a418db6697f09983c4e2b84e1a059486bd5fb96905060007310ed43c718714eb63d5aa57b78b54704e256024e9050620002148160016200070b60201b60201c565b8073ffffffffffffffffffffffffffffffffffffffff1660808173ffffffffffffffffffffffffffffffffffffffff16815250508073ffffffffffffffffffffffffffffffffffffffff1663c45a01556040518163ffffffff1660e01b815260040160206040518083038186803b1580156200028f57600080fd5b505afa158015620002a4573d6000803e3d6000fd5b505050506040513d601f19601f82011682018060405250810190620002ca919062000efc565b73ffffffffffffffffffffffffffffffffffffffff1663c9c65396308373ffffffffffffffffffffffffffffffffffffffff1663ad5c46486040518163ffffffff1660e01b815260040160206040518083038186803b1580156200032d57600080fd5b505afa15801562000342573d6000803e3d6000fd5b505050506040513d601f19601f8201168201806040525081019062000368919062000efc565b6040518363ffffffff1660e01b81526004016200038792919062000f3f565b602060405180830381600087803b158015620003a257600080fd5b505af1158015620003b7573d6000803e3d6000fd5b505050506040513d601f19601f82011682018060405250810190620003dd919062000efc565b73ffffffffffffffffffffffffffffffffffffffff1660a08173ffffffffffffffffffffffffffffffffffffffff16815250506200042560a05160016200070b60201b60201c565b6200043a60a05160016200080860201b60201c565b600060059050600080600590506000600590506000806005905060006b033b2e3c9fd0803ce800000090506103e8808262000476919062000fa5565b62000482919062001035565b6008819055506127106005826200049a919062000fa5565b620004a6919062001035565b6009819055506103e88082620004bd919062000fa5565b620004c9919062001035565b600a81905550866010819055508560118190555084601281905550601254601154601054620004f991906200106d565b6200050591906200106d565b600f819055508360148190555082601581905550816016819055506016546015546014546200053591906200106d565b6200054191906200106d565b60138190555073a957a7f4d684966909680119a0cb06a593dc0645600660006101000a81548173ffffffffffffffffffffffffffffffffffffffff021916908373ffffffffffffffffffffffffffffffffffffffff160217905550731aef2e32563b98480173014509352532d9a507a9600760006101000a81548173ffffffffffffffffffffffffffffffffffffffff021916908373ffffffffffffffffffffffffffffffffffffffff16021790555062000604896001620008a960201b60201c565b62000617306001620008a960201b60201c565b6200062c61dead6001620008a960201b60201c565b62000661600760009054906101000a900473ffffffffffffffffffffffffffffffffffffffff166001620008a960201b60201c565b620006748960016200070b60201b60201c565b620006873060016200070b60201b60201c565b620006bc600760009054906101000a900473ffffffffffffffffffffffffffffffffffffffff1660016200070b60201b60201c565b620006d161dead60016200070b60201b60201c565b620006e38982620009f660201b60201c565b620006f48962000ba560201b60201c565b50505050505050505062001396565b600033905090565b6200071b6200070360201b60201c565b73ffffffffffffffffffffffffffffffffffffffff16600560009054906101000a900473ffffffffffffffffffffffffffffffffffffffff1673ffffffffffffffffffffffffffffffffffffffff1614620007ad576040517f08c379a0000000000000000000000000000000000000000000000000000000008152600401620007a4906200112b565b60405180910390fd5b80601b60008473ffffffffffffffffffffffffffffffffffffffff1673ffffffffffffffffffffffffffffffffffffffff16815260200190815260200160002060006101000a81548160ff0219169083151502179055505050565b80601c60008473ffffffffffffffffffffffffffffffffffffffff1673ffffffffffffffffffffffffffffffffffffffff16815260200190815260200160002060006101000a81548160ff0219169083151502179055508015158273ffffffffffffffffffffffffffffffffffffffff167fffa9187bf1f18bf477bd0ea1bcbb64e93b6a98132473929edfce215cd9b16fab60405160405180910390a35050565b620008b96200070360201b60201c565b73ffffffffffffffffffffffffffffffffffffffff16600560009054906101000a900473ffffffffffffffffffffffffffffffffffffffff1673ffffffffffffffffffffffffffffffffffffffff16146200094b576040517f08c379a000000000000000000000000000000000000000000000000000000000815260040162000942906200112b565b60405180910390fd5b80601a60008473ffffffffffffffffffffffffffffffffffffffff1673ffffffffffffffffffffffffffffffffffffffff16815260200190815260200160002060006101000a81548160ff0219169083151502179055508173ffffffffffffffffffffffffffffffffffffffff167f9d8f7706ea1113d1a167b526eca956215946dd36cc7df39eb16180222d8b5df782604051620009ea91906200116a565b60405180910390a25050565b600073ffffffffffffffffffffffffffffffffffffffff168273ffffffffffffffffffffffffffffffffffffffff16141562000a69576040517f08c379a000000000000000000000000000000000000000000000000000000000815260040162000a6090620011d7565b60405180910390fd5b62000a7d6000838362000d7a60201b60201c565b62000a998160025462000d7f60201b620027b11790919060201c565b60028190555062000af7816000808573ffffffffffffffffffffffffffffffffffffffff1673ffffffffffffffffffffffffffffffffffffffff1681526020019081526020016000205462000d7f60201b620027b11790919060201c565b6000808473ffffffffffffffffffffffffffffffffffffffff1673ffffffffffffffffffffffffffffffffffffffff168152602001908152602001600020819055508173ffffffffffffffffffffffffffffffffffffffff16600073ffffffffffffffffffffffffffffffffffffffff167fddf252ad1be2c89b69c2b068fc378daa952ba7f163c4a11628f55a4df523b3ef8360405162000b9991906200120a565b60405180910390a35050565b62000bb56200070360201b60201c565b73ffffffffffffffffffffffffffffffffffffffff16600560009054906101000a900473ffffffffffffffffffffffffffffffffffffffff1673ffffffffffffffffffffffffffffffffffffffff161462000c47576040517f08c379a000000000000000000000000000000000000000000000000000000000815260040162000c3e906200112b565b60405180910390fd5b600073ffffffffffffffffffffffffffffffffffffffff168173ffffffffffffffffffffffffffffffffffffffff16141562000cba576040517f08c379a000000000000000000000000000000000000000000000000000000000815260040162000cb1906200129d565b60405180910390fd5b8073ffffffffffffffffffffffffffffffffffffffff16600560009054906101000a900473ffffffffffffffffffffffffffffffffffffffff1673ffffffffffffffffffffffffffffffffffffffff167f8be0079c531659141344cd1fd0a4f28419497f9722a3daafe3b4186f6b6457e060405160405180910390a380600560006101000a81548173ffffffffffffffffffffffffffffffffffffffff021916908373ffffffffffffffffffffffffffffffffffffffff16021790555050565b505050565b600080828462000d9091906200106d565b90508381101562000dd8576040517f08c379a000000000000000000000000000000000000000000000000000000000815260040162000dcf906200130f565b60405180910390fd5b8091505092915050565b82805462000df09062001360565b90600052602060002090601f01602090048101928262000e14576000855562000e60565b82601f1062000e2f57805160ff191683800117855562000e60565b8280016001018555821562000e60579182015b8281111562000e5f57825182559160200191906001019062000e42565b5b50905062000e6f919062000e73565b5090565b5b8082111562000e8e57600081600090555060010162000e74565b5090565b600080fd5b600073ffffffffffffffffffffffffffffffffffffffff82169050919050565b600062000ec48262000e97565b9050919050565b62000ed68162000eb7565b811462000ee257600080fd5b50565b60008151905062000ef68162000ecb565b92915050565b60006020828403121562000f155762000f1462000e92565b5b600062000f258482850162000ee5565b91505092915050565b62000f398162000eb7565b82525050565b600060408201905062000f56600083018562000f2e565b62000f65602083018462000f2e565b9392505050565b6000819050919050565b7f4e487b7100000000000000000000000000000000000000000000000000000000600052601160045260246000fd5b600062000fb28262000f6c565b915062000fbf8362000f6c565b9250817fffffffffffffffffffffffffffffffffffffffffffffffffffffffffffffffff048311821515161562000ffb5762000ffa62000f76565b5b828202905092915050565b7f4e487b7100000000000000000000000000000000000000000000000000000000600052601260045260246000fd5b6000620010428262000f6c565b91506200104f8362000f6c565b92508262001062576200106162001006565b5b828204905092915050565b60006200107a8262000f6c565b9150620010878362000f6c565b9250827fffffffffffffffffffffffffffffffffffffffffffffffffffffffffffffffff03821115620010bf57620010be62000f76565b5b828201905092915050565b600082825260208201905092915050565b7f4f776e61626c653a2063616c6c6572206973206e6f7420746865206f776e6572600082015250565b600062001113602083620010ca565b91506200112082620010db565b602082019050919050565b60006020820190508181036000830152620011468162001104565b9050919050565b60008115159050919050565b62001164816200114d565b82525050565b600060208201905062001181600083018462001159565b92915050565b7f45524332303a206d696e7420746f20746865207a65726f206164647265737300600082015250565b6000620011bf601f83620010ca565b9150620011cc8262001187565b602082019050919050565b60006020820190508181036000830152620011f281620011b0565b9050919050565b620012048162000f6c565b82525050565b6000602082019050620012216000830184620011f9565b92915050565b7f4f776e61626c653a206e6577206f776e657220697320746865207a65726f206160008201527f6464726573730000000000000000000000000000000000000000000000000000602082015250565b600062001285602683620010ca565b9150620012928262001227565b604082019050919050565b60006020820190508181036000830152620012b88162001276565b9050919050565b7f536166654d6174683a206164646974696f6e206f766572666c6f770000000000600082015250565b6000620012f7601b83620010ca565b91506200130482620012bf565b602082019050919050565b600060208201905081810360008301526200132a81620012e8565b9050919050565b7f4e487b7100000000000000000000000000000000000000000000000000000000600052602260045260246000fd5b600060028204905060018216806200137957607f821691505b6020821081141562001390576200138f62001331565b5b50919050565b60805160a051615773620014026000396000818161128501528181611aa10152612d9a01526000818161107e015281816125a8015281816126e301528181612d4201528181613fb6015281816140a6015281816140cd01528181614169015261419001526157736000f3fe6080604052600436106103545760003560e01c80637bce5a04116101c6578063c17b5b8c116100f7578063e884f26011610095578063f2fde38b1161006f578063f2fde38b14610c7d578063f637434214610ca6578063f8b45b0514610cd1578063fc155d1d14610cfc5761035b565b8063e884f26014610bfc578063ee40166e14610c27578063f11a24d314610c525761035b565b8063d257b34f116100d1578063d257b34f14610b2c578063d85ba06314610b69578063dd62ed3e14610b94578063e2f4560514610bd15761035b565b8063c17b5b8c14610aad578063c876d0b914610ad6578063c8c8ebe414610b015761035b565b80639a7a23d611610164578063aacebbe31161013e578063aacebbe3146109f3578063b62496f514610a1c578063bbc0c74214610a59578063c024666814610a845761035b565b80639a7a23d614610950578063a457c2d714610979578063a9059cbb146109b65761035b565b80638da5cb5b116101a05780638da5cb5b146108a657806392136913146108d1578063924de9b7146108fc57806395d89b41146109255761035b565b80637bce5a041461083b5780638095d564146108665780638a8c523c1461088f5761035b565b806323b872dd116102a05780636a486a8e1161023e578063715018a611610218578063715018a6146107a5578063751039fc146107bc5780637571336a146107e757806375f0a874146108105761035b565b80636a486a8e146107125780636ddd17131461073d57806370a08231146107685761035b565b8063395093511161027a578063395093511461064257806349bd5a5e1461067f5780634a62bb65146106aa5780634fbee193146106d55761035b565b806323b872dd146105af57806327c8f835146105ec578063313ce567146106175761035b565b80631694505e1161030d5780631a8145bb116102e75780631a8145bb146105035780631cd348c01461052e5780631f3fed8f146105595780631fe70a98146105845761035b565b80631694505e1461048257806318160ddd146104ad5780631a221dbb146104d85761035b565b806306e7b14d1461036057806306fdde0314610389578063095ea7b3146103b45780630b166d50146103f1578063106b5da11461041c57806310d5de53146104455761035b565b3661035b57005b600080fd5b34801561036c57600080fd5b5061038760048036038101906103829190614314565b610d25565b005b34801561039557600080fd5b5061039e610e7c565b6040516103ab91906143da565b60405180910390f35b3480156103c057600080fd5b506103db60048036038101906103d69190614432565b610f0e565b6040516103e8919061448d565b60405180910390f35b3480156103fd57600080fd5b50610406610f2c565b60405161041391906144b7565b60405180910390f35b34801561042857600080fd5b50610443600480360381019061043e91906144d2565b610f32565b005b34801561045157600080fd5b5061046c60048036038101906104679190614314565b61105c565b604051610479919061448d565b60405180910390f35b34801561048e57600080fd5b5061049761107c565b6040516104a4919061455e565b60405180910390f35b3480156104b957600080fd5b506104c26110a0565b6040516104cf91906144b7565b60405180910390f35b3480156104e457600080fd5b506104ed6110aa565b6040516104fa91906144b7565b60405180910390f35b34801561050f57600080fd5b506105186110b0565b60405161052591906144b7565b60405180910390f35b34801561053a57600080fd5b506105436110b6565b6040516105509190614588565b60405180910390f35b34801561056557600080fd5b5061056e6110dc565b60405161057b91906144b7565b60405180910390f35b34801561059057600080fd5b506105996110e2565b6040516105a691906144b7565b60405180910390f35b3480156105bb57600080fd5b506105d660048036038101906105d191906145a3565b6110e8565b6040516105e3919061448d565b60405180910390f35b3480156105f857600080fd5b506106016111c1565b60405161060e9190614588565b60405180910390f35b34801561062357600080fd5b5061062c6111c7565b6040516106399190614612565b60405180910390f35b34801561064e57600080fd5b5061066960048036038101906106649190614432565b6111d0565b604051610676919061448d565b60405180910390f35b34801561068b57600080fd5b50610694611283565b6040516106a19190614588565b60405180910390f35b3480156106b657600080fd5b506106bf6112a7565b6040516106cc919061448d565b60405180910390f35b3480156106e157600080fd5b506106fc60048036038101906106f79190614314565b6112ba565b604051610709919061448d565b60405180910390f35b34801561071e57600080fd5b50610727611310565b60405161073491906144b7565b60405180910390f35b34801561074957600080fd5b50610752611316565b60405161075f919061448d565b60405180910390f35b34801561077457600080fd5b5061078f600480360381019061078a9190614314565b611329565b60405161079c91906144b7565b60405180910390f35b3480156107b157600080fd5b506107ba611371565b005b3480156107c857600080fd5b506107d16114c9565b6040516107de919061448d565b60405180910390f35b3480156107f357600080fd5b5061080e60048036038101906108099190614659565b611584565b005b34801561081c57600080fd5b50610825611676565b6040516108329190614588565b60405180910390f35b34801561084757600080fd5b5061085061169c565b60405161085d91906144b7565b60405180910390f35b34801561087257600080fd5b5061088d60048036038101906108889190614699565b6116a2565b005b34801561089b57600080fd5b506108a46117bc565b005b3480156108b257600080fd5b506108bb611892565b6040516108c89190614588565b60405180910390f35b3480156108dd57600080fd5b506108e66118bc565b6040516108f391906144b7565b60405180910390f35b34801561090857600080fd5b50610923600480360381019061091e91906146ec565b6118c2565b005b34801561093157600080fd5b5061093a611976565b60405161094791906143da565b60405180910390f35b34801561095c57600080fd5b5061097760048036038101906109729190614659565b611a08565b005b34801561098557600080fd5b506109a0600480360381019061099b9190614432565b611b3c565b6040516109ad919061448d565b60405180910390f35b3480156109c257600080fd5b506109dd60048036038101906109d89190614432565b611c09565b6040516109ea919061448d565b60405180910390f35b3480156109ff57600080fd5b50610a1a6004803603810190610a159190614314565b611c27565b005b348015610a2857600080fd5b50610a436004803603810190610a3e9190614314565b611d7e565b604051610a50919061448d565b60405180910390f35b348015610a6557600080fd5b50610a6e611d9e565b604051610a7b919061448d565b60405180910390f35b348015610a9057600080fd5b50610aab6004803603810190610aa69190614659565b611db1565b005b348015610ab957600080fd5b50610ad46004803603810190610acf9190614699565b611ef1565b005b348015610ae257600080fd5b50610aeb61200b565b604051610af8919061448d565b60405180910390f35b348015610b0d57600080fd5b50610b1661201e565b604051610b2391906144b7565b60405180910390f35b348015610b3857600080fd5b50610b536004803603810190610b4e91906144d2565b612024565b604051610b60919061448d565b60405180910390f35b348015610b7557600080fd5b50610b7e612194565b604051610b8b91906144b7565b60405180910390f35b348015610ba057600080fd5b50610bbb6004803603810190610bb69190614719565b61219a565b604051610bc891906144b7565b60405180910390f35b348015610bdd57600080fd5b50610be6612221565b604051610bf391906144b7565b60405180910390f35b348015610c0857600080fd5b50610c11612227565b604051610c1e919061448d565b60405180910390f35b348015610c3357600080fd5b50610c3c6122e2565b604051610c4991906144b7565b60405180910390f35b348015610c5e57600080fd5b50610c676122e8565b604051610c7491906144b7565b60405180910390f35b348015610c8957600080fd5b50610ca46004803603810190610c9f9190614314565b6122ee565b005b348015610cb257600080fd5b50610cbb6124b5565b604051610cc891906144b7565b60405180910390f35b348015610cdd57600080fd5b50610ce66124bb565b604051610cf391906144b7565b60405180910390f35b348015610d0857600080fd5b50610d236004803603810190610d1e91906144d2565b6124c1565b005b610d2d61280f565b73ffffffffffffffffffffffffffffffffffffffff16600560009054906101000a900473ffffffffffffffffffffffffffffffffffffffff1673ffffffffffffffffffffffffffffffffffffffff1614610dbc576040517f08c379a0000000000000000000000000000000000000000000000000000000008152600401610db3906147a5565b60405180910390fd5b600760009054906101000a900473ffffffffffffffffffffffffffffffffffffffff1673ffffffffffffffffffffffffffffffffffffffff168173ffffffffffffffffffffffffffffffffffffffff167f15e571905a1c816ac9ad091c2b82079da1ad3668d345e3894c424c5e5b47d97b60405160405180910390a380600760006101000a81548173ffffffffffffffffffffffffffffffffffffffff021916908373ffffffffffffffffffffffffffffffffffffffff16021790555050565b606060038054610e8b906147f4565b80601f0160208091040260200160405190810160405280929190818152602001828054610eb7906147f4565b8015610f045780601f10610ed957610100808354040283529160200191610f04565b820191906000526020600020905b815481529060010190602001808311610ee757829003601f168201915b5050505050905090565b6000610f22610f1b61280f565b8484612817565b6001905092915050565b60195481565b610f3a61280f565b73ffffffffffffffffffffffffffffffffffffffff16600560009054906101000a900473ffffffffffffffffffffffffffffffffffffffff1673ffffffffffffffffffffffffffffffffffffffff1614610fc9576040517f08c379a0000000000000000000000000000000000000000000000000000000008152600401610fc0906147a5565b60405180910390fd5b670de0b6b3a76400006103e86005610fdf6110a0565b610fe99190614855565b610ff391906148de565b610ffd91906148de565b81101561103f576040517f08c379a000000000000000000000000000000000000000000000000000000000815260040161103690614981565b60405180910390fd5b670de0b6b3a7640000816110539190614855565b60088190555050565b601b6020528060005260406000206000915054906101000a900460ff1681565b7f000000000000000000000000000000000000000000000000000000000000000081565b6000600254905090565b60165481565b60185481565b600760009054906101000a900473ffffffffffffffffffffffffffffffffffffffff1681565b60175481565b60125481565b60006110f58484846129e2565b6111b68461110161280f565b6111b1856040518060600160405280602881526020016156f160289139600160008b73ffffffffffffffffffffffffffffffffffffffff1673ffffffffffffffffffffffffffffffffffffffff168152602001908152602001600020600061116761280f565b73ffffffffffffffffffffffffffffffffffffffff1673ffffffffffffffffffffffffffffffffffffffff168152602001908152602001600020546137ac9092919063ffffffff16565b612817565b600190509392505050565b61dead81565b60006012905090565b60006112796111dd61280f565b8461127485600160006111ee61280f565b73ffffffffffffffffffffffffffffffffffffffff1673ffffffffffffffffffffffffffffffffffffffff16815260200190815260200160002060008973ffffffffffffffffffffffffffffffffffffffff1673ffffffffffffffffffffffffffffffffffffffff168152602001908152602001600020546127b190919063ffffffff16565b612817565b6001905092915050565b7f000000000000000000000000000000000000000000000000000000000000000081565b600b60009054906101000a900460ff1681565b6000601a60008373ffffffffffffffffffffffffffffffffffffffff1673ffffffffffffffffffffffffffffffffffffffff16815260200190815260200160002060009054906101000a900460ff169050919050565b60135481565b600b60029054906101000a900460ff1681565b60008060008373ffffffffffffffffffffffffffffffffffffffff1673ffffffffffffffffffffffffffffffffffffffff168152602001908152602001600020549050919050565b61137961280f565b73ffffffffffffffffffffffffffffffffffffffff16600560009054906101000a900473ffffffffffffffffffffffffffffffffffffffff1673ffffffffffffffffffffffffffffffffffffffff1614611408576040517f08c379a00000000000000000000000000000000000000000000000000000000081526004016113ff906147a5565b60405180910390fd5b600073ffffffffffffffffffffffffffffffffffffffff16600560009054906101000a900473ffffffffffffffffffffffffffffffffffffffff1673ffffffffffffffffffffffffffffffffffffffff167f8be0079c531659141344cd1fd0a4f28419497f9722a3daafe3b4186f6b6457e060405160405180910390a36000600560006101000a81548173ffffffffffffffffffffffffffffffffffffffff021916908373ffffffffffffffffffffffffffffffffffffffff160217905550565b60006114d361280f565b73ffffffffffffffffffffffffffffffffffffffff16600560009054906101000a900473ffffffffffffffffffffffffffffffffffffffff1673ffffffffffffffffffffffffffffffffffffffff1614611562576040517f08c379a0000000000000000000000000000000000000000000000000000000008152600401611559906147a5565b60405180910390fd5b6000600b60006101000a81548160ff0219169083151502179055506001905090565b61158c61280f565b73ffffffffffffffffffffffffffffffffffffffff16600560009054906101000a900473ffffffffffffffffffffffffffffffffffffffff1673ffffffffffffffffffffffffffffffffffffffff161461161b576040517f08c379a0000000000000000000000000000000000000000000000000000000008152600401611612906147a5565b60405180910390fd5b80601b60008473ffffffffffffffffffffffffffffffffffffffff1673ffffffffffffffffffffffffffffffffffffffff16815260200190815260200160002060006101000a81548160ff0219169083151502179055505050565b600660009054906101000a900473ffffffffffffffffffffffffffffffffffffffff1681565b60105481565b6116aa61280f565b73ffffffffffffffffffffffffffffffffffffffff16600560009054906101000a900473ffffffffffffffffffffffffffffffffffffffff1673ffffffffffffffffffffffffffffffffffffffff1614611739576040517f08c379a0000000000000000000000000000000000000000000000000000000008152600401611730906147a5565b60405180910390fd5b82601081905550816011819055508060128190555060125460115460105461176191906149a1565b61176b91906149a1565b600f81905550600a600f5411156117b7576040517f08c379a00000000000000000000000000000000000000000000000000000000081526004016117ae90614a43565b60405180910390fd5b505050565b6117c461280f565b73ffffffffffffffffffffffffffffffffffffffff16600560009054906101000a900473ffffffffffffffffffffffffffffffffffffffff1673ffffffffffffffffffffffffffffffffffffffff1614611853576040517f08c379a000000000000000000000000000000000000000000000000000000000815260040161184a906147a5565b60405180910390fd5b6001600b60016101000a81548160ff0219169083151502179055506001600b60026101000a81548160ff02191690831515021790555043600c81905550565b6000600560009054906101000a900473ffffffffffffffffffffffffffffffffffffffff16905090565b60145481565b6118ca61280f565b73ffffffffffffffffffffffffffffffffffffffff16600560009054906101000a900473ffffffffffffffffffffffffffffffffffffffff1673ffffffffffffffffffffffffffffffffffffffff1614611959576040517f08c379a0000000000000000000000000000000000000000000000000000000008152600401611950906147a5565b60405180910390fd5b80600b60026101000a81548160ff02191690831515021790555050565b606060048054611985906147f4565b80601f01602080910402602001604051908101604052809291908181526020018280546119b1906147f4565b80156119fe5780601f106119d3576101008083540402835291602001916119fe565b820191906000526020600020905b8154815290600101906020018083116119e157829003601f168201915b5050505050905090565b611a1061280f565b73ffffffffffffffffffffffffffffffffffffffff16600560009054906101000a900473ffffffffffffffffffffffffffffffffffffffff1673ffffffffffffffffffffffffffffffffffffffff1614611a9f576040517f08c379a0000000000000000000000000000000000000000000000000000000008152600401611a96906147a5565b60405180910390fd5b7f000000000000000000000000000000000000000000000000000000000000000073ffffffffffffffffffffffffffffffffffffffff168273ffffffffffffffffffffffffffffffffffffffff161415611b2e576040517f08c379a0000000000000000000000000000000000000000000000000000000008152600401611b2590614ad5565b60405180910390fd5b611b388282613810565b5050565b6000611bff611b4961280f565b84611bfa856040518060600160405280602581526020016157196025913960016000611b7361280f565b73ffffffffffffffffffffffffffffffffffffffff1673ffffffffffffffffffffffffffffffffffffffff16815260200190815260200160002060008a73ffffffffffffffffffffffffffffffffffffffff1673ffffffffffffffffffffffffffffffffffffffff168152602001908152602001600020546137ac9092919063ffffffff16565b612817565b6001905092915050565b6000611c1d611c1661280f565b84846129e2565b6001905092915050565b611c2f61280f565b73ffffffffffffffffffffffffffffffffffffffff16600560009054906101000a900473ffffffffffffffffffffffffffffffffffffffff1673ffffffffffffffffffffffffffffffffffffffff1614611cbe576040517f08c379a0000000000000000000000000000000000000000000000000000000008152600401611cb5906147a5565b60405180910390fd5b600660009054906101000a900473ffffffffffffffffffffffffffffffffffffffff1673ffffffffffffffffffffffffffffffffffffffff168173ffffffffffffffffffffffffffffffffffffffff167fa751787977eeb3902e30e1d19ca00c6ad274a1f622c31a206e32366700b0567460405160405180910390a380600660006101000a81548173ffffffffffffffffffffffffffffffffffffffff021916908373ffffffffffffffffffffffffffffffffffffffff16021790555050565b601c6020528060005260406000206000915054906101000a900460ff1681565b600b60019054906101000a900460ff1681565b611db961280f565b73ffffffffffffffffffffffffffffffffffffffff16600560009054906101000a900473ffffffffffffffffffffffffffffffffffffffff1673ffffffffffffffffffffffffffffffffffffffff1614611e48576040517f08c379a0000000000000000000000000000000000000000000000000000000008152600401611e3f906147a5565b60405180910390fd5b80601a60008473ffffffffffffffffffffffffffffffffffffffff1673ffffffffffffffffffffffffffffffffffffffff16815260200190815260200160002060006101000a81548160ff0219169083151502179055508173ffffffffffffffffffffffffffffffffffffffff167f9d8f7706ea1113d1a167b526eca956215946dd36cc7df39eb16180222d8b5df782604051611ee5919061448d565b60405180910390a25050565b611ef961280f565b73ffffffffffffffffffffffffffffffffffffffff16600560009054906101000a900473ffffffffffffffffffffffffffffffffffffffff1673ffffffffffffffffffffffffffffffffffffffff1614611f88576040517f08c379a0000000000000000000000000000000000000000000000000000000008152600401611f7f906147a5565b60405180910390fd5b826014819055508160158190555080601681905550601654601554601454611fb091906149a1565b611fba91906149a1565b60138190555060196013541115612006576040517f08c379a0000000000000000000000000000000000000000000000000000000008152600401611ffd90614b41565b60405180910390fd5b505050565b600e60009054906101000a900460ff1681565b60085481565b600061202e61280f565b73ffffffffffffffffffffffffffffffffffffffff16600560009054906101000a900473ffffffffffffffffffffffffffffffffffffffff1673ffffffffffffffffffffffffffffffffffffffff16146120bd576040517f08c379a00000000000000000000000000000000000000000000000000000000081526004016120b4906147a5565b60405180910390fd5b620186a060016120cb6110a0565b6120d59190614855565b6120df91906148de565b821015612121576040517f08c379a000000000000000000000000000000000000000000000000000000000815260040161211890614bd3565b60405180910390fd5b6103e8600561212e6110a0565b6121389190614855565b61214291906148de565b821115612184576040517f08c379a000000000000000000000000000000000000000000000000000000000815260040161217b90614c65565b60405180910390fd5b8160098190555060019050919050565b600f5481565b6000600160008473ffffffffffffffffffffffffffffffffffffffff1673ffffffffffffffffffffffffffffffffffffffff16815260200190815260200160002060008373ffffffffffffffffffffffffffffffffffffffff1673ffffffffffffffffffffffffffffffffffffffff16815260200190815260200160002054905092915050565b60095481565b600061223161280f565b73ffffffffffffffffffffffffffffffffffffffff16600560009054906101000a900473ffffffffffffffffffffffffffffffffffffffff1673ffffffffffffffffffffffffffffffffffffffff16146122c0576040517f08c379a00000000000000000000000000000000000000000000000000000000081526004016122b7906147a5565b60405180910390fd5b6000600e60006101000a81548160ff0219169083151502179055506001905090565b600c5481565b60115481565b6122f661280f565b73ffffffffffffffffffffffffffffffffffffffff16600560009054906101000a900473ffffffffffffffffffffffffffffffffffffffff1673ffffffffffffffffffffffffffffffffffffffff1614612385576040517f08c379a000000000000000000000000000000000000000000000000000000000815260040161237c906147a5565b60405180910390fd5b600073ffffffffffffffffffffffffffffffffffffffff168173ffffffffffffffffffffffffffffffffffffffff1614156123f5576040517f08c379a00000000000000000000000000000000000000000000000000000000081526004016123ec90614cf7565b60405180910390fd5b8073ffffffffffffffffffffffffffffffffffffffff16600560009054906101000a900473ffffffffffffffffffffffffffffffffffffffff1673ffffffffffffffffffffffffffffffffffffffff167f8be0079c531659141344cd1fd0a4f28419497f9722a3daafe3b4186f6b6457e060405160405180910390a380600560006101000a81548173ffffffffffffffffffffffffffffffffffffffff021916908373ffffffffffffffffffffffffffffffffffffffff16021790555050565b60155481565b600a5481565b6124c961280f565b73ffffffffffffffffffffffffffffffffffffffff16600560009054906101000a900473ffffffffffffffffffffffffffffffffffffffff1673ffffffffffffffffffffffffffffffffffffffff1614612558576040517f08c379a000000000000000000000000000000000000000000000000000000000815260040161254f906147a5565b60405180910390fd5b6000600267ffffffffffffffff81111561257557612574614d17565b5b6040519080825280602002602001820160405280156125a35781602001602082028036833780820191505090505b5090507f000000000000000000000000000000000000000000000000000000000000000073ffffffffffffffffffffffffffffffffffffffff1663ad5c46486040518163ffffffff1660e01b815260040160206040518083038186803b15801561260c57600080fd5b505afa158015612620573d6000803e3d6000fd5b505050506040513d601f19601f820116820180604052508101906126449190614d5b565b8160008151811061265857612657614d88565b5b602002602001019073ffffffffffffffffffffffffffffffffffffffff16908173ffffffffffffffffffffffffffffffffffffffff168152505030816001815181106126a7576126a6614d88565b5b602002602001019073ffffffffffffffffffffffffffffffffffffffff16908173ffffffffffffffffffffffffffffffffffffffff16815250507f000000000000000000000000000000000000000000000000000000000000000073ffffffffffffffffffffffffffffffffffffffff1663b6f9de958360008461dead426040518663ffffffff1660e01b81526004016127449493929190614eb0565b6000604051808303818588803b15801561275d57600080fd5b505af1158015612771573d6000803e3d6000fd5b50505050507fa017c1567cfcdd2d750a8c01e39fe2a846bcebc293c7d078477014d684820568826040516127a591906144b7565b60405180910390a15050565b60008082846127c091906149a1565b905083811015612805576040517f08c379a00000000000000000000000000000000000000000000000000000000081526004016127fc90614f48565b60405180910390fd5b8091505092915050565b600033905090565b600073ffffffffffffffffffffffffffffffffffffffff168373ffffffffffffffffffffffffffffffffffffffff161415612887576040517f08c379a000000000000000000000000000000000000000000000000000000000815260040161287e90614fda565b60405180910390fd5b600073ffffffffffffffffffffffffffffffffffffffff168273ffffffffffffffffffffffffffffffffffffffff1614156128f7576040517f08c379a00000000000000000000000000000000000000000000000000000000081526004016128ee9061506c565b60405180910390fd5b80600160008573ffffffffffffffffffffffffffffffffffffffff1673ffffffffffffffffffffffffffffffffffffffff16815260200190815260200160002060008473ffffffffffffffffffffffffffffffffffffffff1673ffffffffffffffffffffffffffffffffffffffff168152602001908152602001600020819055508173ffffffffffffffffffffffffffffffffffffffff168373ffffffffffffffffffffffffffffffffffffffff167f8c5be1e5ebec7d5bd14f71427d1e84f3dd0314c0f7b2291e5b200ac8c7c3b925836040516129d591906144b7565b60405180910390a3505050565b600073ffffffffffffffffffffffffffffffffffffffff168373ffffffffffffffffffffffffffffffffffffffff161415612a52576040517f08c379a0000000000000000000000000000000000000000000000000000000008152600401612a49906150fe565b60405180910390fd5b600073ffffffffffffffffffffffffffffffffffffffff168273ffffffffffffffffffffffffffffffffffffffff161415612ac2576040517f08c379a0000000000000000000000000000000000000000000000000000000008152600401612ab990615190565b60405180910390fd5b6000811415612adc57612ad7838360006138b1565b6137a7565b600b60009054906101000a900460ff161561314d57612af9611892565b73ffffffffffffffffffffffffffffffffffffffff168373ffffffffffffffffffffffffffffffffffffffff1614158015612b675750612b37611892565b73ffffffffffffffffffffffffffffffffffffffff168273ffffffffffffffffffffffffffffffffffffffff1614155b8015612ba05750600073ffffffffffffffffffffffffffffffffffffffff168273ffffffffffffffffffffffffffffffffffffffff1614155b8015612bda575061dead73ffffffffffffffffffffffffffffffffffffffff168273ffffffffffffffffffffffffffffffffffffffff1614155b8015612bf35750600560149054906101000a900460ff16155b1561314c57600b60019054906101000a900460ff16612ced57601a60008473ffffffffffffffffffffffffffffffffffffffff1673ffffffffffffffffffffffffffffffffffffffff16815260200190815260200160002060009054906101000a900460ff1680612cad5750601a60008373ffffffffffffffffffffffffffffffffffffffff1673ffffffffffffffffffffffffffffffffffffffff16815260200190815260200160002060009054906101000a900460ff165b612cec576040517f08c379a0000000000000000000000000000000000000000000000000000000008152600401612ce3906151fc565b60405180910390fd5b5b600e60009054906101000a900460ff1615612eb557612d0a611892565b73ffffffffffffffffffffffffffffffffffffffff168273ffffffffffffffffffffffffffffffffffffffff1614158015612d9157507f000000000000000000000000000000000000000000000000000000000000000073ffffffffffffffffffffffffffffffffffffffff168273ffffffffffffffffffffffffffffffffffffffff1614155b8015612de957507f000000000000000000000000000000000000000000000000000000000000000073ffffffffffffffffffffffffffffffffffffffff168273ffffffffffffffffffffffffffffffffffffffff1614155b15612eb45743600d60003273ffffffffffffffffffffffffffffffffffffffff1673ffffffffffffffffffffffffffffffffffffffff1681526020019081526020016000205410612e6f576040517f08c379a0000000000000000000000000000000000000000000000000000000008152600401612e66906152b4565b60405180910390fd5b43600d60003273ffffffffffffffffffffffffffffffffffffffff1673ffffffffffffffffffffffffffffffffffffffff168152602001908152602001600020819055505b5b601c60008473ffffffffffffffffffffffffffffffffffffffff1673ffffffffffffffffffffffffffffffffffffffff16815260200190815260200160002060009054906101000a900460ff168015612f585750601b60008373ffffffffffffffffffffffffffffffffffffffff1673ffffffffffffffffffffffffffffffffffffffff16815260200190815260200160002060009054906101000a900460ff16155b15612fff57600854811115612fa2576040517f08c379a0000000000000000000000000000000000000000000000000000000008152600401612f9990615346565b60405180910390fd5b600a54612fae83611329565b82612fb991906149a1565b1115612ffa576040517f08c379a0000000000000000000000000000000000000000000000000000000008152600401612ff1906153b2565b60405180910390fd5b61314b565b601c60008373ffffffffffffffffffffffffffffffffffffffff1673ffffffffffffffffffffffffffffffffffffffff16815260200190815260200160002060009054906101000a900460ff1680156130a25750601b60008473ffffffffffffffffffffffffffffffffffffffff1673ffffffffffffffffffffffffffffffffffffffff16815260200190815260200160002060009054906101000a900460ff16155b156130f1576008548111156130ec576040517f08c379a00000000000000000000000000000000000000000000000000000000081526004016130e390615444565b60405180910390fd5b61314a565b600a546130fd83611329565b8261310891906149a1565b1115613149576040517f08c379a0000000000000000000000000000000000000000000000000000000008152600401613140906153b2565b60405180910390fd5b5b5b5b5b600061315830611329565b90506000600954821015905080801561317d5750600b60029054906101000a900460ff165b80156131965750600560149054906101000a900460ff16155b80156131ec5750601c60008673ffffffffffffffffffffffffffffffffffffffff1673ffffffffffffffffffffffffffffffffffffffff16815260200190815260200160002060009054906101000a900460ff16155b80156132425750601a60008673ffffffffffffffffffffffffffffffffffffffff1673ffffffffffffffffffffffffffffffffffffffff16815260200190815260200160002060009054906101000a900460ff16155b80156132985750601a60008573ffffffffffffffffffffffffffffffffffffffff1673ffffffffffffffffffffffffffffffffffffffff16815260200190815260200160002060009054906101000a900460ff16155b156132dc576001600560146101000a81548160ff0219169083151502179055506132c0613b46565b6000600560146101000a81548160ff0219169083151502179055505b6000600560149054906101000a900460ff16159050601a60008773ffffffffffffffffffffffffffffffffffffffff1673ffffffffffffffffffffffffffffffffffffffff16815260200190815260200160002060009054906101000a900460ff16806133925750601a60008673ffffffffffffffffffffffffffffffffffffffff1673ffffffffffffffffffffffffffffffffffffffff16815260200190815260200160002060009054906101000a900460ff165b1561339c57600090505b6000811561379757436002600c546133b491906149a1565b1015801561345f5750601c60008773ffffffffffffffffffffffffffffffffffffffff1673ffffffffffffffffffffffffffffffffffffffff16815260200190815260200160002060009054906101000a900460ff168061345e5750601c60008873ffffffffffffffffffffffffffffffffffffffff1673ffffffffffffffffffffffffffffffffffffffff16815260200190815260200160002060009054906101000a900460ff165b5b156135255761348b606461347d606388613e0390919063ffffffff16565b613e7e90919063ffffffff16565b9050606360218261349c9190614855565b6134a691906148de565b601860008282546134b791906149a1565b9250508190555060636021826134cd9190614855565b6134d791906148de565b601960008282546134e891906149a1565b9250508190555060636021826134fe9190614855565b61350891906148de565b6017600082825461351991906149a1565b92505081905550613773565b601c60008773ffffffffffffffffffffffffffffffffffffffff1673ffffffffffffffffffffffffffffffffffffffff16815260200190815260200160002060009054906101000a900460ff16801561358057506000601354115b1561364d576135ad606461359f60135488613e0390919063ffffffff16565b613e7e90919063ffffffff16565b9050601354601554826135c09190614855565b6135ca91906148de565b601860008282546135db91906149a1565b92505081905550601354601654826135f39190614855565b6135fd91906148de565b6019600082825461360e91906149a1565b92505081905550601354601454826136269190614855565b61363091906148de565b6017600082825461364191906149a1565b92505081905550613772565b601c60008873ffffffffffffffffffffffffffffffffffffffff1673ffffffffffffffffffffffffffffffffffffffff16815260200190815260200160002060009054906101000a900460ff1680156136a857506000600f54115b15613771576136d560646136c7600f5488613e0390919063ffffffff16565b613e7e90919063ffffffff16565b9050600f54601154826136e89190614855565b6136f291906148de565b6018600082825461370391906149a1565b92505081905550600f546012548261371b9190614855565b61372591906148de565b6019600082825461373691906149a1565b92505081905550600f546010548261374e9190614855565b61375891906148de565b6017600082825461376991906149a1565b925050819055505b5b5b6000811115613788576137878730836138b1565b5b80856137949190615464565b94505b6137a28787876138b1565b505050505b505050565b60008383111582906137f4576040517f08c379a00000000000000000000000000000000000000000000000000000000081526004016137eb91906143da565b60405180910390fd5b50600083856138039190615464565b9050809150509392505050565b80601c60008473ffffffffffffffffffffffffffffffffffffffff1673ffffffffffffffffffffffffffffffffffffffff16815260200190815260200160002060006101000a81548160ff0219169083151502179055508015158273ffffffffffffffffffffffffffffffffffffffff167fffa9187bf1f18bf477bd0ea1bcbb64e93b6a98132473929edfce215cd9b16fab60405160405180910390a35050565b600073ffffffffffffffffffffffffffffffffffffffff168373ffffffffffffffffffffffffffffffffffffffff161415613921576040517f08c379a0000000000000000000000000000000000000000000000000000000008152600401613918906150fe565b60405180910390fd5b600073ffffffffffffffffffffffffffffffffffffffff168273ffffffffffffffffffffffffffffffffffffffff161415613991576040517f08c379a000000000000000000000000000000000000000000000000000000000815260040161398890615190565b60405180910390fd5b61399c838383613ec8565b613a07816040518060600160405280602681526020016156cb602691396000808773ffffffffffffffffffffffffffffffffffffffff1673ffffffffffffffffffffffffffffffffffffffff168152602001908152602001600020546137ac9092919063ffffffff16565b6000808573ffffffffffffffffffffffffffffffffffffffff1673ffffffffffffffffffffffffffffffffffffffff16815260200190815260200160002081905550613a9a816000808573ffffffffffffffffffffffffffffffffffffffff1673ffffffffffffffffffffffffffffffffffffffff168152602001908152602001600020546127b190919063ffffffff16565b6000808473ffffffffffffffffffffffffffffffffffffffff1673ffffffffffffffffffffffffffffffffffffffff168152602001908152602001600020819055508173ffffffffffffffffffffffffffffffffffffffff168373ffffffffffffffffffffffffffffffffffffffff167fddf252ad1be2c89b69c2b068fc378daa952ba7f163c4a11628f55a4df523b3ef83604051613b3991906144b7565b60405180910390a3505050565b6000613b5130611329565b90506000601954601754601854613b6891906149a1565b613b7291906149a1565b90506000821480613b835750600081145b15613b8f575050613e01565b600060028260185485613ba29190614855565b613bac91906148de565b613bb691906148de565b90506000613bcd8285613ecd90919063ffffffff16565b90506000479050613bdd82613f17565b6000613bf28247613ecd90919063ffffffff16565b90506000613c1d86613c0f60175485613e0390919063ffffffff16565b613e7e90919063ffffffff16565b90506000613c4887613c3a60195486613e0390919063ffffffff16565b613e7e90919063ffffffff16565b90506000818385613c599190615464565b613c639190615464565b90506000601881905550600060178190555060006019819055506000600660009054906101000a900473ffffffffffffffffffffffffffffffffffffffff1673ffffffffffffffffffffffffffffffffffffffff1684604051613cc5906154c9565b60006040518083038185875af1925050503d8060008114613d02576040519150601f19603f3d011682016040523d82523d6000602084013e613d07565b606091505b50509050600088118015613d1b5750600082115b15613d6857613d2a8883614163565b7f17bbfb9a6069321b6ded73bd96327c9e6b7212a5cd51ff219cd61370acafb5618783601854604051613d5f939291906154de565b60405180910390a15b600760009054906101000a900473ffffffffffffffffffffffffffffffffffffffff1673ffffffffffffffffffffffffffffffffffffffff1647604051613dae906154c9565b60006040518083038185875af1925050503d8060008114613deb576040519150601f19603f3d011682016040523d82523d6000602084013e613df0565b606091505b505080915050505050505050505050505b565b600080831415613e165760009050613e78565b60008284613e249190614855565b9050828482613e3391906148de565b14613e73576040517f08c379a0000000000000000000000000000000000000000000000000000000008152600401613e6a90615587565b60405180910390fd5b809150505b92915050565b6000613ec083836040518060400160405280601a81526020017f536166654d6174683a206469766973696f6e206279207a65726f00000000000081525061424e565b905092915050565b505050565b6000613f0f83836040518060400160405280601e81526020017f536166654d6174683a207375627472616374696f6e206f766572666c6f7700008152506137ac565b905092915050565b6000600267ffffffffffffffff811115613f3457613f33614d17565b5b604051908082528060200260200182016040528015613f625781602001602082028036833780820191505090505b5090503081600081518110613f7a57613f79614d88565b5b602002602001019073ffffffffffffffffffffffffffffffffffffffff16908173ffffffffffffffffffffffffffffffffffffffff16815250507f000000000000000000000000000000000000000000000000000000000000000073ffffffffffffffffffffffffffffffffffffffff1663ad5c46486040518163ffffffff1660e01b815260040160206040518083038186803b15801561401a57600080fd5b505afa15801561402e573d6000803e3d6000fd5b505050506040513d601f19601f820116820180604052508101906140529190614d5b565b8160018151811061406657614065614d88565b5b602002602001019073ffffffffffffffffffffffffffffffffffffffff16908173ffffffffffffffffffffffffffffffffffffffff16815250506140cb307f000000000000000000000000000000000000000000000000000000000000000084612817565b7f000000000000000000000000000000000000000000000000000000000000000073ffffffffffffffffffffffffffffffffffffffff1663791ac9478360008430426040518663ffffffff1660e01b815260040161412d9594939291906155a7565b600060405180830381600087803b15801561414757600080fd5b505af115801561415b573d6000803e3d6000fd5b505050505050565b61418e307f000000000000000000000000000000000000000000000000000000000000000084612817565b7f000000000000000000000000000000000000000000000000000000000000000073ffffffffffffffffffffffffffffffffffffffff1663f305d71982308560008061dead426040518863ffffffff1660e01b81526004016141f596959493929190615601565b6060604051808303818588803b15801561420e57600080fd5b505af1158015614222573d6000803e3d6000fd5b50505050506040513d601f19601f820116820180604052508101906142479190615677565b5050505050565b60008083118290614295576040517f08c379a000000000000000000000000000000000000000000000000000000000815260040161428c91906143da565b60405180910390fd5b50600083856142a491906148de565b9050809150509392505050565b600080fd5b600073ffffffffffffffffffffffffffffffffffffffff82169050919050565b60006142e1826142b6565b9050919050565b6142f1816142d6565b81146142fc57600080fd5b50565b60008135905061430e816142e8565b92915050565b60006020828403121561432a576143296142b1565b5b6000614338848285016142ff565b91505092915050565b600081519050919050565b600082825260208201905092915050565b60005b8381101561437b578082015181840152602081019050614360565b8381111561438a576000848401525b50505050565b6000601f19601f8301169050919050565b60006143ac82614341565b6143b6818561434c565b93506143c681856020860161435d565b6143cf81614390565b840191505092915050565b600060208201905081810360008301526143f481846143a1565b905092915050565b6000819050919050565b61440f816143fc565b811461441a57600080fd5b50565b60008135905061442c81614406565b92915050565b60008060408385031215614449576144486142b1565b5b6000614457858286016142ff565b92505060206144688582860161441d565b9150509250929050565b60008115159050919050565b61448781614472565b82525050565b60006020820190506144a2600083018461447e565b92915050565b6144b1816143fc565b82525050565b60006020820190506144cc60008301846144a8565b92915050565b6000602082840312156144e8576144e76142b1565b5b60006144f68482850161441d565b91505092915050565b6000819050919050565b600061452461451f61451a846142b6565b6144ff565b6142b6565b9050919050565b600061453682614509565b9050919050565b60006145488261452b565b9050919050565b6145588161453d565b82525050565b6000602082019050614573600083018461454f565b92915050565b614582816142d6565b82525050565b600060208201905061459d6000830184614579565b92915050565b6000806000606084860312156145bc576145bb6142b1565b5b60006145ca868287016142ff565b93505060206145db868287016142ff565b92505060406145ec8682870161441d565b9150509250925092565b600060ff82169050919050565b61460c816145f6565b82525050565b60006020820190506146276000830184614603565b92915050565b61463681614472565b811461464157600080fd5b50565b6000813590506146538161462d565b92915050565b600080604083850312156146705761466f6142b1565b5b600061467e858286016142ff565b925050602061468f85828601614644565b9150509250929050565b6000806000606084860312156146b2576146b16142b1565b5b60006146c08682870161441d565b93505060206146d18682870161441d565b92505060406146e28682870161441d565b9150509250925092565b600060208284031215614702576147016142b1565b5b600061471084828501614644565b91505092915050565b600080604083850312156147305761472f6142b1565b5b600061473e858286016142ff565b925050602061474f858286016142ff565b9150509250929050565b7f4f776e61626c653a2063616c6c6572206973206e6f7420746865206f776e6572600082015250565b600061478f60208361434c565b915061479a82614759565b602082019050919050565b600060208201905081810360008301526147be81614782565b9050919050565b7f4e487b7100000000000000000000000000000000000000000000000000000000600052602260045260246000fd5b6000600282049050600182168061480c57607f821691505b602082108114156148205761481f6147c5565b5b50919050565b7f4e487b7100000000000000000000000000000000000000000000000000000000600052601160045260246000fd5b6000614860826143fc565b915061486b836143fc565b9250817fffffffffffffffffffffffffffffffffffffffffffffffffffffffffffffffff04831182151516156148a4576148a3614826565b5b828202905092915050565b7f4e487b7100000000000000000000000000000000000000000000000000000000600052601260045260246000fd5b60006148e9826143fc565b91506148f4836143fc565b925082614904576149036148af565b5b828204905092915050565b7f43616e6e6f7420736574206d61785472616e73616374696f6e416d6f756e742060008201527f6c6f776572207468616e20302e35250000000000000000000000000000000000602082015250565b600061496b602f8361434c565b91506149768261490f565b604082019050919050565b6000602082019050818103600083015261499a8161495e565b9050919050565b60006149ac826143fc565b91506149b7836143fc565b9250827fffffffffffffffffffffffffffffffffffffffffffffffffffffffffffffffff038211156149ec576149eb614826565b5b828201905092915050565b7f4d757374206b656570206665657320617420313025206f72206c657373000000600082015250565b6000614a2d601d8361434c565b9150614a38826149f7565b602082019050919050565b60006020820190508181036000830152614a5c81614a20565b9050919050565b7f54686520706169722063616e6e6f742062652072656d6f7665642066726f6d2060008201527f6175746f6d617465644d61726b65744d616b6572506169727300000000000000602082015250565b6000614abf60398361434c565b9150614aca82614a63565b604082019050919050565b60006020820190508181036000830152614aee81614ab2565b9050919050565b7f4d757374206b656570206665657320617420323525206f72206c657373000000600082015250565b6000614b2b601d8361434c565b9150614b3682614af5565b602082019050919050565b60006020820190508181036000830152614b5a81614b1e565b9050919050565b7f5377617020616d6f756e742063616e6e6f74206265206c6f776572207468616e60008201527f20302e3030312520746f74616c20737570706c792e0000000000000000000000602082015250565b6000614bbd60358361434c565b9150614bc882614b61565b604082019050919050565b60006020820190508181036000830152614bec81614bb0565b9050919050565b7f5377617020616d6f756e742063616e6e6f74206265206869676865722074686160008201527f6e20302e352520746f74616c20737570706c792e000000000000000000000000602082015250565b6000614c4f60348361434c565b9150614c5a82614bf3565b604082019050919050565b60006020820190508181036000830152614c7e81614c42565b9050919050565b7f4f776e61626c653a206e6577206f776e657220697320746865207a65726f206160008201527f6464726573730000000000000000000000000000000000000000000000000000602082015250565b6000614ce160268361434c565b9150614cec82614c85565b604082019050919050565b60006020820190508181036000830152614d1081614cd4565b9050919050565b7f4e487b7100000000000000000000000000000000000000000000000000000000600052604160045260246000fd5b600081519050614d55816142e8565b92915050565b600060208284031215614d7157614d706142b1565b5b6000614d7f84828501614d46565b91505092915050565b7f4e487b7100000000000000000000000000000000000000000000000000000000600052603260045260246000fd5b6000819050919050565b6000614ddc614dd7614dd284614db7565b6144ff565b6143fc565b9050919050565b614dec81614dc1565b82525050565b600081519050919050565b600082825260208201905092915050565b6000819050602082019050919050565b614e27816142d6565b82525050565b6000614e398383614e1e565b60208301905092915050565b6000602082019050919050565b6000614e5d82614df2565b614e678185614dfd565b9350614e7283614e0e565b8060005b83811015614ea3578151614e8a8882614e2d565b9750614e9583614e45565b925050600181019050614e76565b5085935050505092915050565b6000608082019050614ec56000830187614de3565b8181036020830152614ed78186614e52565b9050614ee66040830185614579565b614ef360608301846144a8565b95945050505050565b7f536166654d6174683a206164646974696f6e206f766572666c6f770000000000600082015250565b6000614f32601b8361434c565b9150614f3d82614efc565b602082019050919050565b60006020820190508181036000830152614f6181614f25565b9050919050565b7f45524332303a20617070726f76652066726f6d20746865207a65726f2061646460008201527f7265737300000000000000000000000000000000000000000000000000000000602082015250565b6000614fc460248361434c565b9150614fcf82614f68565b604082019050919050565b60006020820190508181036000830152614ff381614fb7565b9050919050565b7f45524332303a20617070726f766520746f20746865207a65726f20616464726560008201527f7373000000000000000000000000000000000000000000000000000000000000602082015250565b600061505660228361434c565b915061506182614ffa565b604082019050919050565b6000602082019050818103600083015261508581615049565b9050919050565b7f45524332303a207472616e736665722066726f6d20746865207a65726f20616460008201527f6472657373000000000000000000000000000000000000000000000000000000602082015250565b60006150e860258361434c565b91506150f38261508c565b604082019050919050565b60006020820190508181036000830152615117816150db565b9050919050565b7f45524332303a207472616e7366657220746f20746865207a65726f206164647260008201527f6573730000000000000000000000000000000000000000000000000000000000602082015250565b600061517a60238361434c565b91506151858261511e565b604082019050919050565b600060208201905081810360008301526151a98161516d565b9050919050565b7f54726164696e67206973206e6f74206163746976652e00000000000000000000600082015250565b60006151e660168361434c565b91506151f1826151b0565b602082019050919050565b60006020820190508181036000830152615215816151d9565b9050919050565b7f5f7472616e736665723a3a205472616e736665722044656c617920656e61626c60008201527f65642e20204f6e6c79206f6e652070757263686173652070657220626c6f636b60208201527f20616c6c6f7765642e0000000000000000000000000000000000000000000000604082015250565b600061529e60498361434c565b91506152a98261521c565b606082019050919050565b600060208201905081810360008301526152cd81615291565b9050919050565b7f427579207472616e7366657220616d6f756e742065786365656473207468652060008201527f6d61785472616e73616374696f6e416d6f756e742e0000000000000000000000602082015250565b600061533060358361434c565b915061533b826152d4565b604082019050919050565b6000602082019050818103600083015261535f81615323565b9050919050565b7f4d61782077616c6c657420657863656564656400000000000000000000000000600082015250565b600061539c60138361434c565b91506153a782615366565b602082019050919050565b600060208201905081810360008301526153cb8161538f565b9050919050565b7f53656c6c207472616e7366657220616d6f756e7420657863656564732074686560008201527f206d61785472616e73616374696f6e416d6f756e742e00000000000000000000602082015250565b600061542e60368361434c565b9150615439826153d2565b604082019050919050565b6000602082019050818103600083015261545d81615421565b9050919050565b600061546f826143fc565b915061547a836143fc565b92508282101561548d5761548c614826565b5b828203905092915050565b600081905092915050565b50565b60006154b3600083615498565b91506154be826154a3565b600082019050919050565b60006154d4826154a6565b9150819050919050565b60006060820190506154f360008301866144a8565b61550060208301856144a8565b61550d60408301846144a8565b949350505050565b7f536166654d6174683a206d756c7469706c69636174696f6e206f766572666c6f60008201527f7700000000000000000000000000000000000000000000000000000000000000602082015250565b600061557160218361434c565b915061557c82615515565b604082019050919050565b600060208201905081810360008301526155a081615564565b9050919050565b600060a0820190506155bc60008301886144a8565b6155c96020830187614de3565b81810360408301526155db8186614e52565b90506155ea6060830185614579565b6155f760808301846144a8565b9695505050505050565b600060c0820190506156166000830189614579565b61562360208301886144a8565b6156306040830187614de3565b61563d6060830186614de3565b61564a6080830185614579565b61565760a08301846144a8565b979650505050505050565b60008151905061567181614406565b92915050565b6000806000606084860312156156905761568f6142b1565b5b600061569e86828701615662565b93505060206156af86828701615662565b92505060406156c086828701615662565b915050925092509256fe45524332303a207472616e7366657220616d6f756e7420657863656564732062616c616e636545524332303a207472616e7366657220616d6f756e74206578636565647320616c6c6f77616e636545524332303a2064656372656173656420616c6c6f77616e63652062656c6f77207a65726fa26469706673582212209cbcce12b22c622d154dd38f7bdcf0728379d4f5637a8b721307b1885f5e8a9164736f6c63430008090033",
  "linkReferences": {},
  "deployedLinkReferences": {}
}